:020000040800F2
:1000000000040020B9020008BB020008BB0200087F
:10001000BB020008BB020008BB020008BB020008CC
:10002000BB020008BB020008BB020008C1020008B6
:10003000BB020008BB020008DF020008BB02000888
:10004000BB020008BB020008BB020008BB0200089C
:10005000BB020008BB0200089132000811330008FF
:1000600081330008F133000861340008F13D0008D5
:10007000313E0008713E0008B13E0008F13E000824
:10008000313F0008713F0008BB020008BB020008B6
:10009000BB020008BB020008BB020008D134000804
:1000A000BB020008BB020008BB020008BB0200083C
:1000B000B13C0008BB020008BB0200083142000846
:1000C00001440008BB020008BB020008BB02000894
:1000D000BB020008BB02000801390008BB0200088F
:1000E000B1360008BB020008BB020008BB020008D2
:1000F000BB020008BB020008BB020008BB020008EC
:10010000BB020008BB020008BB020008BB020008DB
:10011000BB020008BB020008BB020008BB020008CB
:10012000114000085140000891400008D1400008EB
:1001300011410008BB020008BB020008BB02000816
:10014000BB020008BB020008BB020008BB0200089B
:10015000BB020008BB020008BB020008BB0200088B
:10016000BB020008BB020008BB020008BB0200087B
:10017000BB020008BB020008BB020008BB0200086B
:10018000BB020008BB020008BB020008BB0200085B
:10019000BB020008BB020008BB020008BB0200084B
:1001A000BB020008BB020008BB020008E13A0008DD
:1001B000BB020008BB020008BB020008BB0200082B
:1001C000C13F00085141000891410008E141000889
:1001D000BB020008BB020008BB020008BB0200080B
:1001E00072B6264880F30888254880F30988254898
:1001F00025490860022080F31488BFF36F8F02F056
:10020000F7FF04F05DF94FF0553020491B4A914249
:100210003CBF41F8040BFAE71D49194A91423CBF23
:1002200041F8040BFAE71B491B4A1C4B9A423EBF9C
:1002300051F8040B42F8040BF8E700201849194A5A
:1002400091423CBF41F8040BFAE702F0E9FF02F0EB
:10025000D7FF154C154DAC4203DA54F8041B884700
:10026000F9E704F01DFB124C124DAC4203DA54F8CE
:10027000041B8847F9E702F0CBBF00000004002010
:10028000000800200000000808ED00E00000002049
:100290000004002088AF01080008002004080020A6
:1002A00008080020E8240020E0010008E001000820
:1002B000E0010008E001000892E700F000F8FEE726
:1002C000EFF309820C31EFF31183A1E8FC4F0C30FE
:1002D000B0E8FC4F82F3098883F311887047EFF38D
:1002E000118308B504F0ACFA002808BF08BDBDE8CA
:1002F00008400C31EFF30982A1E8FC4F0C30B0E864
:10030000FC4F82F3098883F311887047002383F33D
:1003100011882846A047002004F04AFAFEE70000B2
:10032000844641EA000313F003036DD1403A41D300
:1003300051F8043B40F8043B51F8043B40F8043BBF
:1003400051F8043B40F8043B51F8043B40F8043BAF
:1003500051F8043B40F8043B51F8043B40F8043B9F
:1003600051F8043B40F8043B51F8043B40F8043B8F
:1003700051F8043B40F8043B51F8043B40F8043B7F
:1003800051F8043B40F8043B51F8043B40F8043B6F
:1003900051F8043B40F8043B51F8043B40F8043B5F
:1003A00051F8043B40F8043B51F8043B40F8043B4F
:1003B000403ABDD2303211D351F8043B40F8043BEF
:1003C00051F8043B40F8043B51F8043B40F8043B2F
:1003D00051F8043B40F8043B103AEDD20C3205D3FF
:1003E00051F8043B40F8043B043AF9D2043208D0F7
:1003F000D2071CBF11F8013B00F8013B01D30B8869
:1004000003806046704700BF082A13D38B078DD046
:1004100010F003038AD0C3F10403D21ADB071CBF18
:1004200011F8013B00F8013B80D331F8023B20F882
:10043000023B7BE7043AD9D3013A11F8013B00F8BB
:10044000013BF9D20B7803704B7843708B78837043
:100450006046704753B94AB9002908BF00281CBF3D
:100460004FF0FF314FF0FF3000F074B9ADF1080CE0
:100470006DE904CE00F006F8DDF804E0DDE90223C2
:1004800004B070472DE9F047089E0D4604468846A3
:10049000002B4DD18A42944668D9B2FA82F252B109
:1004A00001FA02F3C2F1200120FA01F10CFA02FC78
:1004B00041EA030894404FEA1C45210CB8FBF5FEC5
:1004C0001FFA8CF705FB1E8341EA03430EFB07F17D
:1004D00099420BD91CEB03030EF1FF3080F01E8113
:1004E000994240F21B81AEF1020E63445B1AA4B242
:1004F000B3FBF5F005FB103344EA034400FB07F7B8
:10050000A7420AD91CEB040400F1FF3380F00881F4
:10051000A74240F2058164440238E41B40EA0E40E1
:1005200000211EB1D4400023C6E90043BDE8F08796
:100530008B4208D9002E00F0EE800021C6E90005AC
:100540000846BDE8F087B3FA83F100294AD1AB42EF
:1005500002D3824200F2F980841A65EB0303012082
:100560009846002EE2D0C6E90048DFE702B9FFDE78
:10057000B2FA82F2002A40F09180A1EB0C054FEA1A
:100580001C471FFA8CFE0121B5FBF7F307FB135044
:10059000250C45EA00450EFB03F0A84208D91CEBE8
:1005A000050503F1FF3802D2A84200F2CB80434692
:1005B0002D1AA4B2B5FBF7F007FB105544EA054429
:1005C0000EFB00FEA64508D91CEB040400F1FF3524
:1005D00002D2A64500F2BB802846A4EB0E0440EAF6
:1005E00003409EE7C1F120078B4022FA07FC4CEA4A
:1005F000030C20FA07F405FA01F31C43FD404FEA0F
:100600001C4900FA01F3B5FBF9F8200C1FFA8CFE27
:1006100009FB185540EA054508FB0EF0A84202FA0E
:1006200001F20BD91CEB050508F1FF3A80F0888038
:10063000A84240F28580A8F1020865442D1AA4B2B0
:10064000B5FBF9F009FB105544EA054500FB0EFE29
:10065000AE4508D91CEB050500F1FF346CD2AE4560
:100660006AD90238654440EA0840A0FB0294A5EB31
:100670000E05A542C846A64656D353D05EB1B3EB8D
:10068000080265EB0E0505FA07F722FA01F3CD40E3
:100690001F43C6E900750021BDE8F087C2F12003C1
:1006A00020FA03F10CFA02FC25FA03F395400D43FE
:1006B0004FEA1C471FFA8CFEB3FBF7F107FB113022
:1006C0002B0C43EA004301FB0EF0984204FA02F4BB
:1006D00008D91CEB030301F1FF382FD298422DD922
:1006E000023963441B1AADB2B3FBF7F007FB1033BA
:1006F00045EA034500FB0EF3AB4208D91CEB0505A8
:1007000000F1FF3816D2AB4214D902386544ED1A15
:1007100040EA014138E73146304607E78646E5E6DC
:100720001846FAE64B45A9D2B9EB020864EB0C0E69
:100730000138A3E74046EAE7204694E74146D1E77F
:10074000D0467BE7023B654432E7084609E764444C
:10075000023842E7704700BF0000000000000000C0
:10076000012914BF6FF01300002070470000000043
:1007700000290CBF6FF0130000207047000000003C
:100780002DE9F04F02F00309C2F34114C2F38006D1
:10079000C2F3C105D709CE4600224FF00F0BA04689
:1007A00017E0D0F800A003EA0A0343EA0E03072A81
:1007B000036045D8036A23EA040444EA0C04046293
:1007C00049083BD07600AD004FEA88084FEA8E0E0C
:1007D0000132CB07F4D543680124944023EA040393
:1007E0003343436084684FF0030C53000CFA03F367
:1007F00024EA03042C438460C46824EA030C4CEA12
:100800000804C46002F00704A400B9F1020F07FA5B
:1008100004FC6FEA03030BFA04F4C2D1072A16D8CA
:10082000D0F820A02AEA040444EA0C040462046814
:10083000234043EA0E0349080360C3D1BDE8F08FAB
:10084000436A23EA040444EA0C044462B8E7D0F89B
:1008500024A02AEA040444EA0C044462E7E700BF47
:10086000024A136843F0C00313607047004400401D
:10087000836A9962DA6912F0800FC26806D0D206E4
:1008800003D51A6842F040021A6070471107F6D586
:10089000996841F400019960F1E700BF0000000091
:1008A000FEE700BF000000000000000000000000A4
:1008B000014B5B6883607047001000E0000000009F
:1008C0000E4A0F4B81685B6810B4946802691B1B69
:1008D0005B1AD218416902614268C46841F10001A3
:1008E0009342026888BF436001349342C0E90234F6
:1008F000416110BC38BF0360704700BFA00B0020EF
:10090000001000E0000000000000000000000000F7
:1009100010B4302383F311880B4B5C684942201AD2
:1009200008401968821A8A4207D3944205D35A6054
:10093000002383F3118810BC70470020002383F349
:10094000118810BC704700BF980B00200000000009
:10095000064B5A684942101A08401968884203D366
:10096000824201D35860704700207047980B0020E6
:10097000C1B100B54A1E22F00302031D1A44437898
:1009800090F800E090F803C081781B0443EA0E63FE
:1009900043EA0C0343EA012340F8043B8242EED1D0
:1009A0005DF804FB704700BF00000000000000007D
:1009B000302383F3118891F84C300C2B10D8DFE8EA
:1009C00003F02A0F0F260B070F0B0F0F0F0F0B0053
:1009D0000A6D936801339360D1E9003213605A6065
:1009E00010B400224FF0FF340B6C88680C6581F85E
:1009F0004C201B689A688242FBD25A680020C1E9E9
:100A000000321160596080F3118810BC70470B6D83
:100A100000221A60E4E7002383F31188704700BFC7
:100A20000368984234D0F0B4002605E0BCF10B0F07
:100A300029D01B68984224D0DA680A43DA6011B1E1
:100A40001A691142F5D0D3E90124156E92F84CC011
:100A50002C43BCF10A0F1466E8D1156D2C42E8D086
:100A6000146C9768166582F84C602468A568BD42CE
:100A7000FBD21B6865689842C2E900452A60626043
:100A8000DAD1F0BC7047156D35EA0404D1D1E7E73F
:100A9000704700BF000000000000000000000000E0
:100AA00010B50146302383F311881148FFF7B8FFD2
:100AB000104BD96818688A688468944214D904680D
:100AC0001C606360012480F84C40D86000240B6CEB
:100AD00081F84C401B689C68A242FBD35A68C1E96C
:100AE00000321160596000DF002383F3118810BDCC
:100AF00000080020D00900200000000000000000D5
:100B0000164B30B403F11004D96144601C69826053
:100B1000022A046038BF0222606018614FF08040F2
:100B20008C184463002404610224C460456AA5EB68
:100B3000010C624503D930BC704729461546013483
:100B400021444163426A511BA142F6D2022CF2D9E0
:100B50005A6B42F0010230BC5A637047D009002042
:100B60002DE9F0415D4D4B1CEF6886B0064669D01B
:100B7000A8465B4B58F8100FCDE903374FF0804C77
:100B80000023059340450A46DCF8241000F09780C6
:100B9000EB698468CB1AD31828BF13469C4223D92B
:100BA000022A38BF022201EB020ECCF834E0DCF856
:100BB00024E0AEEB01018A4298BF022214D8013230
:100BC00002EB0E01CCF83410DCF82410A1EB0E0E71
:100BD00096457ED2022A07D96A6B42F001026A6307
:100BE00002E000681B1B84689C42FAD3029382686F
:100BF0000090D31A426801926C461460C0E9014328
:100C00004FF0FF33AB613946286881F84C600368C8
:100C10002B6001225D6080F84C20E86000DF009BC3
:100C200063B12A69A2421DD0DDE901109A680B6008
:100C30000244C3E901124FF0FF33AB61386D06B0D7
:100C4000BDE8F081286887F84C6003682B600122BA
:100C50005D60394680F84C20E86000DF386D06B0F2
:100C6000BDE8F081002243452B610092C3F8048067
:100C70002BD09A6802994FF080400A449A60416AEA
:100C8000EB69CC1AA242D9D95B1A1344022B38BFA4
:100C90000223CA184263426A511A994228BF0223AA
:100CA000CCD30133D1184163416A8A1A9A4212D2D5
:100CB000022BC3D96B6B43F001036B63BEE76C4639
:100CC0002046FFF71DFFE9689EE74FF08043DA609A
:100CD000B4E78E4673E70A46E3E700BFD009002079
:100CE000B109000800000000000000000000000042
:100CF00070B5302304460D4683F31188164E08E084
:100D00006268C3E9004213606360FFF729FF0028AF
:100D100008DBA3682946042043B9F368002DEFD10E
:100D20004FF0FF30002383F3118870BDA368A169E1
:100D3000013BA36023694A1C9A4228BFE368A26171
:100D40000D7828BFA361E3690BB1204698470023C3
:100D500083F31188284670BDD009002000000000F0
:100D60004FF0FF310C30FFF7C3BF00BF00000000A1
:100D70000C30FFF7BDBF00BF000000000000000006
:100D80002DE9F041302304460F46164683F31188BF
:100D9000DFF8608008E06568C3E900452B606360A8
:100DA000FFF7DEFE002809DBA3683146042053B9B3
:100DB000D8F80C30002EEED14FF0FF30002383F333
:100DC0001188BDE8F0816269A368511C013B616133
:100DD000A3601770D4E904329A4224BFE3686361C8
:100DE000E3690BB120469847002080F31188BDE8E5
:100DF000F08100BFD00900200000000000000000CA
:100E00004FF0FF323030FFF7BBBF00BF00000000E3
:100E10003030FFF7B5BF00BF000000000000000049
:100E20002DE9F843054689461646302383F3118899
:100E3000114F00F1200806E02B62C3F85080FFF745
:100E40008FFE044658B9AB6ADB691B0631464FF08A
:100E500003000FD4FB68002EEED14FF0FF340023C7
:100E600083F311881CB949462846FFF701FD204647
:100E7000BDE8F8830024F2E7D0090020000000005C
:100E80002DE9F84F9046002A52D00026294D0446FD
:100E90008B461F46B146302383F3118804F1200AA4
:100EA00005E02362C3F850A0FFF75AFE58B9A36AC1
:100EB000DB691A0639464FF0030033D4EB68002F84
:100EC000EFD14FF0FF3089F3118840BBA8EB060C3F
:100ED000302383F31188A26AD3691B060ED5DC4444
:100EE0005B4601E09C451FD013F8011B9162D1695C
:100EF000090600F10100F5D406448344E3681807AD
:100F000003D5916841F400019160DB0603D51368B5
:100F100043F04003136089F31188B045BBD83046D5
:100F2000BDE8F88F0020CEE7E36806448344ECE791
:100F30001646F4E7D0090020000000000000000081
:100F40004FF0FF33FFF79CBF0000000000000000DF
:100F5000FFF796BF00000000000000000000000046
:100F6000F8B50D46302383F31188836AD96940F2BE
:100F70000F12114219D1104E044600F1180705E076
:100F8000A3611F65FFF7ECFD58B9A36ADB699B06F7
:100F900029464FF003000DD4F368002DF0D14FF037
:100FA000FF30002383F31188F8BD002383F31188F9
:100FB0000120F8BD0020F4E7D00900200000000067
:100FC00010B54FF0FF310446FFF7CAFF00B110BD66
:100FD000A36A586ADA699206F9D4E268510703D520
:100FE000996841F0805199609205F0D51A6842F0F5
:100FF00010021A6010BD00BF0000000000000000D9
:1010000010B50446FFF7ACFF00B110BDA36A586AE3
:10101000DA699206F9D4E268510703D5996841F07C
:10102000805199609205F0D51A6842F010021A605A
:1010300010BD00BF00000000000000000000000024
:101040002DE9F04F914683B0002A68D01F46354EF7
:1010500000230446884601934FF0300A8AF3118832
:10106000A36ADD6940F20F110D404FD104F1180B56
:1010700006E0A361C3F850B0FFF772FD58B9A36A48
:10108000DB699B0639464FF0030046D4F368002F16
:10109000EFD14FF0FF30002383F3118868BB019B31
:1010A000A9EB030C8AF31188A36AD9698A0611D5C2
:1010B000C444414601E08C4523D05B6A01F8013B02
:1010C000A36AD869820605F10105F4D4019A2A447D
:1010D0000192A844E168480703D5986840F0805021
:1010E0009860890503D5196841F010011960002343
:1010F00083F31188019B9945B0D8019803B0BDE8EE
:10110000F08F019B2B440193A844F0E7002383F365
:101110001188019803B0BDE8F08F0020BBE7019271
:10112000EBE700BFD0090020000000000000000035
:101130004FF0FF33FFF784BF000000000000000005
:10114000FFF77EBF0000000000000000000000006C
:1011500008B50146302383F311880820FFF700FD0E
:10116000002383F3118808BD000000000000000088
:10117000104B114ADB6880B520275A644FF0904627
:10118000B846A6F81A80302585F3118841F28831D7
:101190000820FFF7E5FC002484F31188378385F3EA
:1011A000118841F288310820FFF7DAFC84F31188B6
:1011B000E7E700BFD0090020485300080000000006
:1011C000F0B50446302585F31188A1F1700C604418
:1011D000012143612B4B43642B4B826080F84E10FE
:1011E000A0F1200E2949DF6A40F8081CD968C0F830
:1011F0000CE06FF0020EC0F834E04FF0807E056125
:1012000000F1380640F804EC826600F1580500222F
:1012100003F1280E826180F84D20C763C0F838E0E2
:10122000C0E91822846403643E60C0E9165500F1E9
:101230005405DE62456586688D680265AE4214D944
:1012400081F84C200A6C12689468A542FBD354685C
:10125000C1E9002421600124516080F84C40D8602D
:1012600000DF002383F31188F0BD80F84C201B6859
:101270009A689642FBD95A6844F80C304260106074
:101280005860EEE750530008D00900200D03000815
:101290002DE9F04F83B0C769019299464FF0300AAB
:1012A0008AF31188002A33D0DDF804B004460E46D4
:1012B000A268A169934522698CBFA5685D46A2EB2F
:1012C0000108A8454FD82AD2A5EB0803424630466C
:1012D0000093FFF725F806EB0800DDF80080E168D1
:1012E0004246FFF71DF8E2684244A261A268521B21
:1012F000A260FDB10FB12046B847002383F31188E7
:10130000ABEB050B2E448AF31188BBF1000FCFD154
:101310000198002383F3118803B0BDE8F08F2A46BB
:101320003046FEF7FDFFE268A261A268521BA26090
:10133000002DDFD1104BDA68B9F1000F0AD06168D7
:101340000420C2E900410A6049466260FFF708FCD8
:101350000028ADD0019BA3EB0B00002383F3118881
:1013600003B0BDE8F08F2A463046FEF7D9FFA269E8
:101370002A44A261BAE700BFD009002000000000A3
:101380004FF0FF330C30FFF783BF00BF00000000B9
:101390000C30FFF77DBF00BF000000000000000020
:1013A0002DE9F04F83B0D0F81C80019299464FF0A0
:1013B000300A8AF3118882B3DDF804B004460F4680
:1013C000A368D4E904609B458CBFA5685D46361AC6
:1013D000AE424DD828D232463946FEF7A1FFAA1BAD
:1013E000E0680092B919FEF79BFFE368009A134486
:1013F0006361A3685B1BA3600DB3B8F1000F01D05C
:101400002046C047002383F31188ABEB050B2F4424
:101410008AF31188BBF1000FD2D10198002383F326
:10142000118803B0BDE8F08F2A463946FEF778FFF1
:10143000E3686361A3685B1BA360002DDDD1104BE3
:10144000DB68B9F1000F0AD062684946C3E900427F
:10145000042013606360FFF783FB0028B0D0019B7A
:10146000A3EB0B00002383F3118803B0BDE8F08FDA
:101470002A463946FEF754FF63692B446361B8E797
:10148000D009002000000000000000000000000063
:101490004FF0FF333030FFF783BF00BF0000000084
:1014A0003030FFF77DBF00BF0000000000000000EB
:1014B000F8B584460F46302383F31188134B00F1AF
:1014C000200603254FF0010E0FE0D9681868CCF80C
:1014D000201081F84C5002681A600E65536080F845
:1014E0004CE0D86000DF0C6D2CB9DCF82820D26904
:1014F0001206EAD50024002383F311881CB939466B
:101500006046FFF7B5F92046F8BD00BFD0090020BE
:101510008446002070B5DCF83040CCF8080080F339
:101520001188DCF82C50DCF824E06E68DCF82850D8
:101530006D68C6F800E0F2607360DCF820302B6064
:10154000049BEB604FF08042059B6B60556A4FF047
:10155000300E8EF31188A3691E0407D40EE080F3C9
:1015600011888EF31188A3691E0407D5536A5B1B8B
:10157000B3F5FA7FF3D34FF0FF3070BDDCF80430E1
:10158000DCF830509E68330557D56960DCF82C30A4
:10159000586841686B6823F0FF73FF2923F4803398
:1015A00094BF09044FF47F0143EA060394BF4FF050
:1015B000000E4FF0807E0B4343EA0E036B6002681F
:1015C0001F4B42F0010202602268D968186842F09D
:1015D00040022260626842F4005262606246012565
:1015E00042F81C1F0A65032281F84C2002681A6029
:1015F000536080F84C50D86000DF086D431CBCD1AC
:101600006268DCF8283042F4804262605C68DCF892
:101610002C20216821F00F012160197C1C680E2309
:1016200003FA01F161605468216821F00F01216023
:10163000117C12688B40536070BD49006960A5E75A
:10164000D0090020000000000000000000000000A1
:1016500070B42A4D29680023012000FA03F212EA2F
:10166000010405D00133102BF7D1002070BC704766
:1016700011432960591C5FFA82FC45F8314005EBA3
:10168000C1051F4C1F49696003EB83006546990043
:1016900004EB80004DB11C4DAE6C46F00106AE640B
:1016A000AE6E46F00106AE66AD6E12F47F4F09D005
:1016B000154A956C45F002059564956E45F0020556
:1016C0009566926E104A0B44916C54F8235041F089
:1016D00004019164916E41F00401916604EB830171
:1016E000936E4B680C7C19680E22A24021F00F010A
:1016F000002419606A601C6070BC7047C80B002031
:1017000018AD010808080020001002400000000089
:10171000F8B5056B2B6823F001032B600678012ECA
:10172000044617D0D4E90A3162685B68496805F15C
:1017300024009860D2E9002343F4404343F090032F
:1017400005F1280088602B602A612B6843F00103B3
:101750002B60F8BD1F4B8A229A219842C0E90821CC
:10176000E0D11D4B9A6B42F400129A639A6B22F4FB
:1017700000129A639A6B9A6D42F400129A659A6FFE
:1017800042F400129A679B6FFFF762FFA062FFF7B7
:101790005FFF236AE06243F44053C0682362636AD8
:1017A00043F440536362A36ADF680C4B4FF0100CA4
:1017B000C7F800C050224FF000411127076083F89E
:1017C0001F23C3F88011196083F82023C3F88461B4
:1017D0005E60A7E7080800200010024000E100E07A
:1017E000F0B5174E85B0030A8DF80C308DF80D005A
:1017F000D6E901438DF80E10302787F31188636016
:101800002046FFF785FF02232370002484F311880C
:101810007568318887F3118803232B70AC6003AAA5
:10182000CDE900442846FFF773FE431C14BF022392
:1018300005232B7084F31188C0B205B0F0BD00BF42
:10184000640C002000000000000000000000000008
:101850002DE9F04184B00B0A8DF80C300446D0E934
:10186000015317468DF80D104FF0300888F311889A
:101870006B602846FFF74CFF02232B70002686F38F
:1018800011886568218888F31188032201202A7055
:10189000AE6003AA019000972846FFF739FE431C6B
:1018A00014BF022305232B7086F31188C0B204B045
:1018B000BDE8F08100000000000000000000000012
:1018C0002DE9F041C4B0194E8DF80D00000A8DF8D5
:1018D0000C000DF10E0017464FF03008FEF720FD0A
:1018E000D6E9014388F3118863602046FFF710FFB3
:1018F00002232370002484F311887568318888F3EB
:10190000118803202870AC60FB18CDE9004403AABD
:101910002846FFF7FDFD431C14BF022305232B704F
:1019200084F31188C0B244B0BDE8F081640C00209B
:101930002DE9F84381468846164601270024351BC9
:10194000B5F5807F28BF4FF4807509EB040008EBE4
:1019500004012A4680B2FFF7B3FF2C44A64207EAEF
:101960000007ECD83846BDE8F88300BF000000004F
:101970002DE9F043174D85B0030A8DF80C300F4662
:10198000D5E9014390468DF80D004FF0300989F3F9
:10199000118863602046FFF7BBFE022323700026F8
:1019A00086F311886C68298889F3118803222270D4
:1019B000A66003AACDE900782046FFF7A9FD431CE5
:1019C00014BF02230523237086F31188C0B205B02B
:1019D000BDE8F083640C002000000000000000005F
:1019E0002DE9F04F83B01F4D009316469DF830202F
:1019F000019283460F464FF0C908002405F20C5AA5
:101A00004FF030095A4651463046FFF7B1FF0443C4
:101A1000E4B289F3118864210820FFF7A1F80021BE
:101A200081F3118808F1FF3313F0FF0805EB07017C
:101A300014D0BBF1040F03D195F80E057E280AD807
:101A4000009B91F80C151940019B9942DAD1204670
:101A500003B0BDE8F08F44F04204F8E744F001041D
:101A6000F5E700BF640C002000000000000000004B
:101A7000F0B585B0D6B213118DF80D10090A8DF8A6
:101A80000C108DF80E30114633011446C2F53F5745
:101A900005468DF80F30FEF76BFFDFF880C0083683
:101AA0003437631E04F20F52F6B2BFB21BB21CFAF7
:101AB00082F22919013B11F8010D02F801091BB24C
:101AC000581CF7D104F5A2639BB24FF0706E0399D6
:101AD000CCF80C1538460CEB03074CF803E040F249
:101AE0000513BB8004F10C020023FE71BB710C498D
:101AF00092B2FFF71DFF0322FF23009206464FF428
:101B0000305201210420FFF76BFF2146064328468F
:101B1000FEF72EFFF6B2304605B0F0BD640C002093
:101B20007011002000000000000000000000000014
:101B30002DE9F043DFF890C04FEA021E0C4615462F
:101B400002F10C0706464FEA11294FEA22189CE8D9
:101B5000070087B003AB83E8070019460C2242F662
:101B6000F4708DF80FE08DF80D408DF80C908DF825
:101B70000E80FFF7DDFE032300930446FF234FF49E
:101B8000305201210420FFF72BFFBFB23A460F4924
:101B9000044342F60440FFF7EBFEE4B20443394647
:101BA0000A48FEF7E5FE0A4AE4B22DB2701E002391
:101BB00001331BB212F8011F00F8011F9D42F7DC30
:101BC000204607B0BDE8F083DC4F0008701100200C
:101BD0007311002000000000000000000000000061
:101BE0002DE9F8430546BDF8209098460E46174665
:101BF000FFF79EFF98F8003005F8093004463A4692
:101C000031462846FFF734FF2043C0B2BDE8F883D1
:101C10000EB42DE9F04F86B00FAB53F8046B02936E
:101C20003546019315F8011B002900F00182044696
:101C30004FF000090CE023682046DB68984709F163
:101C400001092E46354615F8011B002900F0D98000
:101C50002529F0D173782D2B04BFB51C4FF0010C52
:101C60002B7818BF4FF0000C2B2B03BF6B784FF075
:101C7000010E01354FF0000E302B03BF01351F461A
:101C80002B7820272A2B49D16B78DDF804B02E2B36
:101C90005BF8042B05F1020656D0002003F0DF01AB
:101CA0004C295FD0A3F14405342D00F2B080DFE869
:101CB00015F0DC00AE00AE00AE00AE00DC00AE0001
:101CC000AE00AE00AE00AE004D011201AE00AE009F
:101CD000AE00AE00B401AE00AE001201AE00AE0028
:101CE000AE00AE00AE00AE00AE00AE00AE00AE0084
:101CF0006F01DC00AE00AE00AE00AE00DC00AE0056
:101D0000AE00AE00AE00AE004D011201AE00AE005E
:101D10005001AE00B401AE00AE0012016E1C002BEB
:101D20006FD0002205E016F8013B01EB4002002BCA
:101D300067D0A3F13001C9B2092902EB8200F2D9C0
:101D40002E2BDDF804B0A8D13378002B59D02A2BE4
:101D500047D173785BF8040B03F0DF014C2906F1DF
:101D600002069FD116F8013B002B4AD0A3F1440193
:101D700034294CD8DFE811F079004B004B004B00C0
:101D80004B0079004B004B004B004B004B00EA002E
:101D9000AF004B004B004B004B0051014B004B0080
:101DA000AF004B004B004B004B004B004B004B0077
:101DB0004B004B004B000C0179004B004B004B00DB
:101DC0004B0079004B004B004B004B004B00EA00EE
:101DD000AF004B004B00ED004B0051014B004B009E
:101DE000AF0001360020A3F13001C9B2092900EB90
:101DF00080053FF653AF16F8013B01EB4500002B81
:101E0000F1D1484606B0BDE8F04F03B070478DF8F9
:101E10000C30013ACDF804B022EAE27ABCF1000FAE
:101E200004D1002ACAF1000A00F3E48000250DF174
:101E30000C0B05F10108D84423681BF8011BDB6873
:101E400020469847C345F7D109F10109A944BAF1E1
:101E5000000F3FF4F7AE554623683946DB6820464D
:101E60009847013DF8D1D144ECE65B4653F8040BAA
:101E700001930028C0F2B680BEF1000F00F0D580BB
:101E80002B238DF80C300DF10D0E03AB0EF10B0B67
:101E90005D466B49A1FB0081C90801EB810A8846B8
:101EA000A0EB4A0130318246C9B2BAF1090F05F8F8
:101EB000011D4046EDDCABEB0500704401E015F878
:101EC000011F0EF8011B8645F9D1AEEB0305521B2D
:101ED0009B46013D2DE04FF010085B4653F8040B84
:101EE00001930DF1170300E02B468646B0FBF8F096
:101EF00008FB10EA0AF130013929C8BF0AF137019D
:101F0000C9B2C64503F1FF3503F8011CECD20DF14F
:101F10001700451B184603AB0DF117089E4601E05C
:101F200010F8011B0EF8011B4045F9D1521B9B46CE
:101F3000013D22EAE27ABCF1000F03D1002ACAF186
:101F4000000A2EDC002DBFF674AF80E74FF00808C2
:101F5000C3E75B4653F804BB0193BBF1000F5FD0AE
:101F60009BF8001000284AD100294BD047F6FE709C
:101F7000594601E0C54205D411F8013FABEB01051C
:101F8000002BF7D1A1EB0B01521A4D1E2027D0E7F1
:101F90005BF8043BCDF804B0013A8DF80C302027F3
:101FA0003AE7D0469BF800102D290FD02B290DD0F1
:101FB00023683946DB68204698471AF1010AF7D1B1
:101FC000002DA9EB0809BFF634AF3BE6302FEFD167
:101FD00022682046D2680BF1010B09F10109013D8D
:101FE0009047E5E72D238DF80C3040420DF10D0EA2
:101FF00003AB4BE76546D0460DF10C0BD2E709B1B8
:102000000138B5D522EAE27ABCF1000F03D1002AEB
:10201000CAF1000A0EDC202719E74FF00A085CE736
:10202000DFF820B00028A1D0EAE703AB9E462DE7F9
:102030008946E6E6D04620274FF0FF35B2E700BFDD
:10204000CDCCCCCC585300080000000000000000AC
:1020500080B5DFF8C4803149D8F80C2086B0302331
:10206000516483F311882E4BD8F80C001968019144
:1020700001AA1A60012100234FF0FF32CDE90201CD
:10208000CDE9043283F31188264F274D274E4FF0B8
:102090003009D8F80C4089F31188236ED8076FF007
:1020A000010121D50B400022236682F3118889F3B8
:1020B0001188049C049282F31188059B1C40E1075F
:1020C0000DD4A20706D46307E3D519492846FFF7C4
:1020D0009FFDDCE731462846FFF79AFDF3E73946D6
:1020E0002846FFF795FDECE7D8F80C10D8F800006B
:1020F00001230A22236581F84C200268C8F80020D9
:10210000C2F8048080F84C30C8F80C0000DF236E61
:1021100003F00101C943C5E7D0090020605300085E
:10212000000800206C5300086C0800209053000841
:10213000C85300080000000000000000000000007C
:1021400030B53B4A3B4B92E80300C7B002AC84E891
:10215000030093E8030004AD85E8030036494FF41B
:1021600042728818FEF7DCF894E80300334C84E8E8
:10217000030095E8030004F1180383E80300A4F1C9
:1021800008004FF44271FEF7F3FB04F12C014FF409
:10219000807206A8FEF7C4F806AD0EA80024A0F1D0
:1021A00020022946D2E9003C6344D2F820C06344AF
:1021B000D2F824C0083263449B08904241F8043BA3
:1021C000F0D10434102C05F1100500F14000E6D1E7
:1021D0001B4CC022002116A802F0AEFE4FF4807204
:1021E00006A904F5A860FEF79BF804F20C504FF422
:1021F0004271FEF7BDFB00231248C4F8400604F20A
:102200000C51C4F884354FF4427242F6F840FFF79F
:102210008FFB0323044600934FF43052FF23012128
:102220000420FFF7DDFB2043C0B247B030BD00BF44
:1022300000540008E84F0008680E002078110020C4
:10224000640C0020A0FC0100000000000000000061
:102250002DE9F04F544B93E80300E9B004AC083388
:1022600084E8030093E8030006AB83E803004F49CA
:102270004FF4F47201F59E60FEF752F894E8030003
:102280004B4C84E803004FF4F471A4F11000FEF706
:102290006FFB4FF4807204F12C0128A8FEF740F880
:1022A000802204F5987108A8FEF73AF808AF0DF1FE
:1022B000A00830AD3E464FF0000BA5F12001B4461A
:1022C000384644460396D1F804900A68B0F90030C5
:1022D000B0F902E0B0F910A04E6A4A44D1F820905B
:1022E00073444A44B0F912909A441AEB090A48BF61
:1022F0000AF1030A3244083192084FEAAA0AA942B5
:1023000044F8042B2CF802AB00F10400DBD1039E4F
:102310000BF1040BBBF1100F08F1100807F12007B7
:1023200006F1080601F14005C7D16022002110A87E
:1023300002F002FEC022002138A802F0FDFD28A90B
:102340004FF480721B48FDF7EBFF802208A91A4862
:10235000FDF7E6FF19484FF4F471FEF709FB184941
:102360004FF4F272A1F1080002F06AFD06AB93E8A7
:102370000300144B4FF4F47283E80300A3F5F071EB
:1023800042F61860FFF7D4FA0323044600934FF493
:102390003052FF2301210420FFF722FB2043C0B26B
:1023A00069B0BDE8F08F00BFF04F0008800C00203E
:1023B00080110020AC110020B0120020701100200C
:1023C00078110020501300200000000000000000E1
:1023D000734B744C2DE9804893E80700DFF8C8B1CF
:1023E000E3688BE80700714A5A64A1B04FF47A7031
:1023F000FEF7AEFE002147F6FF70FFF7F1F90CAFD4
:102400003A46002105465846FFF722FA10AA012154
:1024100006465846FFF71CFA0221044647F6FF70AD
:10242000FFF7DEF99DF83030F02B10D0604B61499A
:102430001868FFF7EDFB302484F3118842F2107125
:102440000820FEF78DFB002383F31188F4E79DF845
:102450004080B8F1020FE9D135432C4340EA04092A
:1024600019F0FF09E2D1544BCBF81830534BCBF89D
:10247000143001254FF00113494647F6FF700C93C5
:102480008BF8B89A1095FFF7ABF9042104460920A0
:10249000FFF7A6F9402104430F20FFF7A1F9E4B2AA
:1024A000044303210A20FFF79BF9E4B20DF1230254
:1024B000044347F6FF715846FFF7CAF9E4B20443F4
:1024C00029460C20FFF78CF9E4B20443494640F258
:1024D0000110FFF785F9E4B2044349464FF48170D7
:1024E000FFF77EF9E4B2044329464FF48570FFF705
:1024F00077F9E4B20443294644F20200FFF770F989
:10250000E4B20443494644F20200FFF769F9E4B239
:10251000044303214FF48570FFF762F9E4B20443EA
:10252000294640F20310FFF75BF9E4B20443494641
:102530000C20FFF755F9E4B2432104430F20FFF7C5
:102540004FF9E4B204430A20FEF702FE40210F20B7
:10255000FFF746F9E4B2294604430A20FFF740F9A1
:10256000E4B204434FF47A70FEF7F2FD494647F6B1
:10257000FF70FFF735F9E4B244EA000600954946DA
:10258000FF2306222846FFF72BFAF6B2064316F081
:10259000FF0617D0064B0A491868FFF739FB4AE7D0
:1025A00024AF0108D0090020640C00200C5400085E
:1025B000600C002014540008E85900081C5600085C
:1025C0004454000829460E20FFF70AF94146044604
:1025D00047F6FF70FFF704F90D2104430320FFF7CE
:1025E000FFF8E4B20443294647F6FF70FFF7F8F816
:1025F0004FF01009E4B24B46212204433146CDF896
:1026000000902846FFF7ECF9E4B20443314647F660
:10261000FF70FFF7E5F8E4B20DF12302044347F63B
:10262000FF715846FFF714F9E4B2044329460C2021
:10263000FFF7D6F8E4B20443314647F6FF70FFF7E0
:10264000CFF8E4B20443314640F20110FFF7C8F876
:10265000E4B2044331464FF48170FFF7C1F8E4B2AD
:10266000044329464FF48570FFF7BAF8E4B20443F7
:10267000294644F20200FFF7B3F8E4B204433146BE
:1026800044F20200FFF7ACF8E4B2044303214FF434
:102690008570FFF7A5F8E4B20443294640F2031021
:1026A000FFF79EF8E4B20443314644F20F00FFF70F
:1026B00097F8E4B20443432140F21A20FFF790F860
:1026C000E4B20443032140F21A20FFF789F8E4B290
:1026D0000443294640F21A20FFF782F8E4B204438B
:1026E000314640F21A20FFF77BF8E4B2044331464A
:1026F00040F21920FFF774F8E4B20443314640F287
:102700001B20FFF76DF8E4B20443314647F6FF7033
:10271000FFF766F8E4B20DF12302044347F6FF71B8
:102720005846FFF795F8E4B2044331460C20FFF712
:1027300057F8E4B20443294647F6FF70FFF750F814
:10274000E4B2044307212020FFF74AF8E4B204432F
:1027500006212020FFF744F8E4B20443092147F69C
:10276000FF70FFF73DF8E4B24FF4004267490443BD
:102770003046FFF7DDF8E4B204430A2147F6FF7064
:10278000FFF72EF8E4B24FF40042614904433046AB
:10279000FFF7CEF8E4B204430B2147F6FF70FFF7D2
:1027A0001FF8E4B24FF4A0425A4904433046FFF701
:1027B000BFF8E4B20443294647F6FF70FFF710F86C
:1027C000E4B20443414647F6FF70FFF709F8E4B26C
:1027D00004430D210320FFF703F8E4B20443294624
:1027E00047F6FF70FEF7FCFFE4B20443CDF800901B
:1027F0004B46314621222846FFF7F2F8E4B2044363
:1028000014F0FF047FF4C6AE214647F6FF70FEF7D2
:10281000E7FF0DF12302064647F6FF715846FFF722
:1028200017F8294606430C20FEF7DAFFF6B20643F6
:10283000214647F6FF70FEF7D3FFF6B20643214666
:102840004FF48A70FEF7CCFFF6B20643214640F201
:102850001510FEF7C5FFF6B2064342214FF48B7008
:10286000FEF7BEFFF6B20643214640F21710FEF710
:10287000B7FFF6B2064321460B20FEF7B1FFF6B2D2
:102880000DF12302064347F6FF715846FEF7E0FFBD
:10289000F6B2064321460C20FEF7A2FFF6B206432D
:1028A00029460B20FEF79CFFF5B20543EDB24FF42D
:1028B000FA764FF0300810E088F311880A210820DA
:1028C000FEF74EF9002383F311889DF82430013E72
:1028D00013F0010FB6B221D106B309AA062158465A
:1028E000FEF7B6FF9DF924300443002BE4B2E3DA8F
:1028F0000DF12808084842460721FEF7A9FF0443C6
:10290000E3B29DF828401C430AE000BFF05C0008D9
:10291000F0DC0008F05C0108640C00200DF12808D0
:1029200025437FF437AE022147F6FF70FEF758FFCC
:10293000CC490446282242F6D870FEF7F9FF02235C
:102940002946044300934FF43052FF230420FFF73D
:1029500047F8E4B2C44904434FF4F67242F6044027
:10296000FFF706F8C049E4B24FF4F4720443A1F54E
:102970009E60FDF7D5FCFFF76BFCE4B2BB494FF45A
:1029800042720443BA48FDF7CBFCFFF7D9FBE4B22F
:10299000DBF8141004434FF4737242F63440FEF730
:1029A000C7FFE4B20323044300934FF43052FF23E4
:1029B00001210420FFF714F8E4B2044304224DF689
:1029C00080313846FFF754F8E4B2044304224DF650
:1029D000641110A8FFF74CF8E4B2262304430093D7
:1029E00028220DF123034EF208119F4801258DF88E
:1029F0002350FFF7F5F8E4B22523044300939A48E7
:102A00000DF1230328224EF20811FFF7E9F8E4B292
:102A100044EA000313F0FF047FF4BCAD954B964DE0
:102A20001868964A9649FFF7F3F89422214605F173
:102A3000080002F081FA934A2346934C43F2415630
:102A4000C5E904424FF43012C5E9006205F11C02E9
:102A500002F8013B0133102BFAD130224FF0FF3145
:102A60008A4802F069FA9C2283484BF6AC71FEF763
:102A7000FFFF024600287BD143F244532B609C2287
:102A800006237D48EB744BF6AC71FEF7F1FF02466E
:102A9000002867D1012200920F228DF8232072486E
:102AA0000DF12303042245F25841FFF799F8064639
:102AB000002840F06C834FF44073CDE90A000822EF
:102AC00045F2504168480993FFF732F89BF80D250D
:102AD0009BF80CE56E4B02901EFB02FEFF2203F1F9
:102AE00010058BF80C200FCB87E80F000FCD10AC32
:102AF0000FC40FCDCBF810600FC495E80F0084E829
:102B00000F0040F6FF735FFA8EFE0DF13C0CB146EC
:102B1000B2460C9311E00C2B0EFB03931DD8BCF8AE
:102B200000206EF30F12ACF80020012603F1040917
:102B30000AF1010ABAF10C0F20D05CF8043F002B17
:102B4000F6D040F6FF7323FA0AF3D807F0D59CF8C5
:102B50000020110702F00F03DDD1BCF8003009EBB3
:102B60001313E2E7434B4B491868FFF751F862E44F
:102B7000404B49491868FFF74BF85CE40EB1CBF8BD
:102B80001090DBF81030302218334DF6801110A869
:102B9000CBF81030FEF76CFFDBF810300A930822F8
:102BA0000D234DF66811814640460B93FEF760FFFA
:102BB00010224DF6701182463846FEF759FF00216B
:102BC000804647F6FF70FEF70BFE052107460920F9
:102BD000FEF706FE0221064647F6FF70FEF700FEEE
:102BE00009A90422054642F6FC70FEF7A1FE032364
:102BF00000934FF43052FF23012104460420FEF7D6
:102C0000EFFE0C22039045F240411748FEF790FF7B
:102C1000BBF81415DBF810309942024606D0FF22AB
:102C2000144B1E491868FEF7F3FF04E4029949EAC1
:102C30000A03194348EA010847EA08073E43039B91
:102C400035432C4323431A4312F0FF02E8D1DFF847
:102C50005080029208F5807708F2C23608F2431AD3
:102C60002AE000BFF0AC01087011002000500008FD
:102C7000680E0020600C002020170020645400081B
:102C80007454000810100108060204094C170020B3
:102C900008530008CC5400089C5400084455000810
:102CA000BC170020302383F31188C8210820FDF7CA
:102CB00057FF029B83F311880422BF490020FEF7CF
:102CC00057FE9BF80C359BF80C209A42EAD0FF2B5C
:102CD000E8D09BF80D25052AE4D19BF80E2502F0DB
:102CE0000502052ADED19BF80F25D206DAD5DBF8DE
:102CF0001020B1498BF80C300020FEF739FE9BF80C
:102D00000C35BBF81010AC488BF80C30FDF730FEDA
:102D1000DBF81040102C88BF4FF010091AD849E09A
:102D200045F2D052934200F036816ED94DF65802EA
:102D3000934200F038814DF68432934206D109F572
:102D4000A2619E4859442A46FDF7EAFA0435A9448F
:102D5000A1452FD209F20C530BEB03001BF8032003
:102D60003BF80350438802F00F0202F10E0101F01C
:102D70000F010A29C5F30B1598BF15FB02F54DF697
:102D8000C432934200F04B81CAD94EF244029342BE
:102D900000F036814AD94EF284029342D6D109F529
:102DA000A2612A46043586485944A944FDF7B8FA79
:102DB000A145CFD3DFF80C82434653F8042FD20A43
:102DC000BB421A60F9D1804A02F20110A2F581716A
:102DD00002F1800412E0002BB8BF03339B10238064
:102DE00010F8013F5B08037032F8025F51F8043FAE
:102DF000ED09DB0AB24215800B6028D034F9023F9E
:102E0000DD1CE8DA029B2380EAE745F2B4429342F4
:102E100000F0FE8045F2D042934297D109F5A261BD
:102E200059442A466948FDF77BFA8FE74DF6C4629C
:102E3000934200F0FC804DF64472934286D109F52E
:102E4000A26159442A466248FDF76AFA7EE7614B5F
:102E5000FF2101E09A4507D013F8012F002AF9D18C
:102E60009A4583F88013F7D15B4A5C4952F8043FD6
:102E7000A1FB0303DB0B1360594B9342F6D10FAA5E
:102E80005849104611F9013B08EB8303D3F8D034BD
:102E900040F8043F544B8B42F4D10024CDE9054463
:102EA0000394204621462546CDF81C80049406E074
:102EB0004FF00A0CE3FB0C010134102C18D052F82F
:102EC000043F13EB050914F0030C4D46F0D0BCF1A0
:102ED000010F40D0BCF1020F4AD0DDE903CE4FF024
:102EE0000A080134E3FB08CE102CCDE903CEE6D16D
:102EF0003E4BDDF81C801B78002B00F0A0803C4B83
:102F00001C78032C00F0CC800A220023FDF7A2FAE3
:102F10000A2205460023DDE90301FDF79BFA8146FD
:102F2000002C40F0A2800023DDE905010A22FDF714
:102F300091FA40F6C4139D4240F20F81854240F25F
:102F40000C814D4540F209810123294A1370294A19
:102F50001E231360A6E64FF0060CE3FB0C01DDE92F
:102F600005C84FF0040EE3FB0EC8CDE905C8A3E782
:102F7000DDE905CE4FF00408E3FB08CECDE905CE30
:102F8000DDF81080DDF80CC04FF0060EE3FB0EC834
:102F9000CDE903C890E709F5A26159442A461648CD
:102FA000FDF7BEF9D2E609F5A26159442A46134855
:102FB000FDF7B6F9CAE600BF70110020C018002066
:102FC000401C0020BC170020FE1A0020C017002063
:102FD000801B0020BF180020881C0020018000807A
:102FE000081D00203C1700204C170020580C002022
:102FF000500C0020540C002000190020801C0020E0
:1030000009F5A26159442A466748FDF789F99DE60A
:103010000BEB090393F8183588F8003096E609F5AC
:10302000A26159442A466148FDF77AF98EE609F50E
:10303000A26159442A465E48FDF772F986E65D4A68
:103040001278002A37D141F2883399457FF62AAEAB
:10305000584901230B7058493C230B60574B584982
:1030600018684A46FEF7D4FD1CE6564A1368013B31
:10307000002B13607EDD022C5FD018D8012C16D1F6
:10308000632D3FF60FAE504A032313704F4A1923A6
:1030900002201360FDF704FD4D4A029B137001E608
:1030A0004A4A1368013B002B13603FF7FBAD464AC9
:1030B000029B1370F6E54048016801390029016060
:1030C0005CDD032A6BD801A353F822F047300008D7
:1030D0002131000803310008DD300008B9F5C87F50
:1030E000BFF4E0AD334A029B1370394B364A0120DE
:1030F000187003231370354A19231360FDF7D0FCB1
:10310000D0E541F2883399457FF6CCAD29490323B8
:103110000B702A4B2F4918684A46FEF779FDC1E526
:10312000B9F5C87FBFF4BEAD224A2B490223137004
:10313000224B1868FEF76CFDB4E563283FF6B2AD8C
:10314000214A03231370214A192304201360FDF739
:10315000A7FC1F4A029B1370A4E540F6C4139945CF
:103160007FF6A0AD4845BFF49DAD4D45BFF49AAD87
:103170000223EAE6144A029B1370D4E60D4C174969
:1031800023700E4B1868FEF743FD227899E70B4B2E
:10319000134918683246FEF73BFDFFF74CB9054A64
:1031A000029B13707EE500BF001C0020001A002067
:1031B000001B00200C1D0020101D0020600C0020B2
:1031C00090550008540C0020500C00205C0C00208E
:1031D000580C0020E0550008C05500087055000844
:1031E0000C55000800000000000000000000000076
:1031F000704700BF00000000000000000000000059
:10320000704700BF00000000000000000000000048
:10321000FEE700BF0000000000000000000000000A
:10322000F8B5154D154F16491648174A05F17004A3
:1032300081420DD9043A034652F8046F43F8046BF7
:103240009942F9D84B1E1B1A23F003030433184488
:10325000874207D97A1E121A22F003020432002193
:1032600001F06AFEA54205D0D5E90420D5E906178C
:103270001035DDE7F8BD00BF98AE0108E824002056
:10328000E8240020E82400208CAF010800000000A2
:10329000194A536903F00103536143B370B5174CE6
:1032A000A3680BB1E0689847302383F31188216845
:1032B000A14214D000260B4609681A6C9D68216053
:1032C0004C601E6583F84C6012689068A842FBD27F
:1032D0005068A142C3E9002003605360EBD1002392
:1032E00083F31188064B4FF080525A6070BD044B37
:1032F0004FF080525A60704700040140CC08002013
:1033000000ED00E0000000000000000000000000F0
:10331000174AF8B5536903F0020353611BB3154F05
:10332000BB690BB1F8699847302383F31188124CBD
:103330003969A14214D000260B4609689D681A6CB1
:1033400039614C601E6583F84C6012689068A84231
:10335000FBD25068A142C3E9002003605360EBD167
:10336000002383F31188054B4FF080525A60F8BD5B
:1033700000040140CC080020DC08002000ED00E043
:10338000174AF8B5536903F0040353611BB3154F93
:10339000BB6A0BB1F86A9847302383F31188124C4B
:1033A000396AA14214D000260B4609689D681A6C40
:1033B00039624C601E6583F84C6012689068A842C0
:1033C000FBD25068A142C3E9002003605360EBD1F7
:1033D000002383F31188054B4FF080525A60F8BDEB
:1033E00000040140CC080020EC08002000ED00E0C3
:1033F000174AF8B5536903F0080353611BB3154F1F
:10340000BB6B0BB1F86B9847302383F31188124CD8
:10341000396BA14214D000260B4609689D681A6CCE
:1034200039634C601E6583F84C6012689068A8424E
:10343000FBD25068A142C3E9002003605360EBD186
:10344000002383F31188054B4FF080525A60F8BD7A
:1034500000040140CC080020FC08002000ED00E042
:10346000174AF8B5536903F0100353611BB3154FA6
:10347000BB6C0BB1F86C9847302383F31188124C66
:10348000396CA14214D000260B4609681A6C9D685D
:1034900039644C601E6583F84C6012689068A842DD
:1034A000FBD25068A142C3E9002003605360EBD116
:1034B000002383F31188054B4FF080525A60F8BD0A
:1034C00000040140CC0800200C09002000ED00E0C1
:1034D000F8B56C4B5D6905F47872AC065A6125D578
:1034E000694CA36D0BB1E06D9847302383F31188CD
:1034F000664E216DB14216D04FF0000C0B460968A4
:103500001A6C9F6821654E60C3F850C083F84CC0A8
:1035100012689068B842FBD25068B142C3E90020FB
:1035200003605360EAD1002383F31188680625D530
:10353000554CA36E0BB1E06E9847302383F311888E
:10354000534E216EB14216D04FF0000C0B46096865
:103550001A6C9F6821664E60C3F850C083F84CC057
:1035600012689068B842FBD25068B142C3E90020AB
:1035700003605360EAD1002383F31188290625D51F
:10358000414CA36F0BB1E06F9847302383F3118850
:10359000404E216FB14216D04FF0000C0B46096827
:1035A0001A6C9F6821674E60C3F850C083F84CC006
:1035B00012689068B842FBD25068B142C3E900205B
:1035C00003605360EAD1002383F31188EA0529D50B
:1035D0002D4CD4F8883013B1D4F88C0098473023A0
:1035E00083F311882C4ED4F88010B14217D04FF0DD
:1035F000000C0B4609681A6C9F68C4F880104E6076
:10360000C3F850C083F84CC012689068B842FBD22F
:103610005068B142C3E9002003605360E9D1002340
:1036200083F31188AB0527D5174CD4F8983013B124
:10363000D4F89C009847302383F31188174DD4F8B1
:103640009010A94215D000270B4609681A6C9E6895
:10365000C4F890104D601F6583F84C701268906834
:10366000B042FBD25068A942C3E900200360536016
:10367000EAD1002383F31188094B4FF080525A603E
:10368000F8BD00BF00040140CC0800201C09002048
:103690002C0900203C0900204C0900205C09002076
:1036A00000ED00E00000000000000000000000004D
:1036B000F8B5884B5D6905F47C426E055A6129D5E1
:1036C000854CD4F8A83013B1D4F8AC009847302317
:1036D00083F31188814ED4F8A010B14217D04FF077
:1036E000000C0B4609681A6C9F68C4F8A0104E6065
:1036F000C3F850C083F84CC012689068B842FBD23F
:103700005068B142C3E9002003605360E9D100234F
:1037100083F311882C0529D56F4CD4F8B83013B138
:10372000D4F8BC009847302383F311886C4ED4F84A
:10373000B010B14217D04FF0000C0B4609681A6C5C
:103740009F68C4F8B0104E60C3F850C083F84CC0F6
:1037500012689068B842FBD25068B142C3E90020B9
:1037600003605360E9D1002383F31188E80429D56D
:10377000594CD4F8C83013B1D4F8CC009847302352
:1037800083F31188574ED4F8C010B14217D04FF0D0
:10379000000C0B4609681A6C9F68C4F8C0104E6094
:1037A000C3F850C083F84CC012689068B842FBD28E
:1037B0005068B142C3E9002003605360E9D100239F
:1037C00083F31188A90429D5434CD4F8D83013B118
:1037D000D4F8DC009847302383F31188424ED4F8A4
:1037E000D010B14217D04FF0000C0B4609681A6C8C
:1037F0009F68C4F8D0104E60C3F850C083F84CC026
:1038000012689068B842FBD25068B142C3E9002008
:1038100003605360E9D1002383F311886A0429D53A
:103820002D4CD4F8E83013B1D4F8EC00984730238D
:1038300083F311882D4ED4F8E010B14217D04FF029
:10384000000C0B4609681A6C9F68C4F8E0104E60C3
:10385000C3F850C083F84CC012689068B842FBD2DD
:103860005068B142C3E9002003605360E9D10023EE
:1038700083F311882B0427D5174CD4F8F83013B1F3
:10388000D4F8FC009847302383F31188184DD4F8FE
:10389000F010A94215D000270B4609681A6C9E68E3
:1038A000C4F8F0104D601F6583F84C701268906882
:1038B000B042FBD25068A942C3E9002003605360C4
:1038C000EAD1002383F311880A4B4FF080525A60EB
:1038D000F8BD00BF00040140CC0800206C090020A6
:1038E0007C0900208C0900209C090020AC090020E4
:1038F000BC09002000ED00E0000000000000000016
:103900002DE9F843724C666DD6F80080F569356292
:103910002A0740F0B680E90500F1A780AA064BD53A
:103920006C48002700F1080929E0D4E908329342E5
:1039300036D06269591C0132216262611D70D4E97E
:1039400007329A4201D3A3692362E3684B4511D041
:103950001A689D68196CE260C2F804901F6583F8CC
:103960004C7009688A68AA42FBD24A68C3E900120F
:1039700013604B6087F31188F569AB061CD53023C3
:1039800083F31188726A94F85C5063691540002BC8
:10399000CBD10421FDF744F8D4E908329342C8D1D1
:1039A0006269002AC5D04FF40061FDF739F887F34A
:1039B0001188F569AB06E2D418F0800F40D02906D3
:1039C0003ED5454F4FF0300C002126E0A26B206C15
:1039D0005D1C0132A263A564854293F800E001D327
:1039E000E36BA364236BBB4210D01A689D68186C0C
:1039F00022635760196583F84C1000688268AA42F8
:103A0000FBD24268C3E9000213604360C6F828E0B5
:103A100081F31188F5692B0612D58CF31188D4E94E
:103A200011239A42D2D1A26B002ACFD02948082173
:103A3000FCF7F6FF28F080033360002383F311883E
:103A400018F0400F0BD06A0609D5302383F3118894
:103A5000D4E911239A422FD0002383F311881F4BFE
:103A60004FF080525A60BDE8F883302383F3118809
:103A700018484FF48061FCF7D3FF002383F31188CB
:103A80004CE715F0080118BF4FF48071EB0748BFF1
:103A900041F02001AF0748BF41F04001680748BF2F
:103AA00041F08001302383F311880A48FCF7B8FF06
:103AB000002383F311882EE7A36B002BCCD005489D
:103AC0001021FCF7ADFF28F040033360C4E700BFCE
:103AD0006C080020700800209C08002000ED00E029
:103AE0006F48816AF8B50D688C68CA69C2F308022C
:103AF00053014FEA122C03F4787343EA8C234FEA04
:103B0000D20C0CF0040C43EA0C034FEA121C0CF02C
:103B1000080C920802F0100243EA0C031343C26837
:103B2000134012D013F4BC6614D19F0500F19D80A0
:103B30005E0700F183801A0748D4DB0663D403696B
:103B40000D608C600BB156489847564B4FF0805231
:103B50005A60F8BD10220A624A6824F0805422F0AC
:103B600040024A6024F0010425F48875302282F373
:103B7000118882698AB10026866182F84C6001262C
:103B800016659768166C3668D6F808C0BC45FAD238
:103B90007768166057603A607260C2698AB1002621
:103BA000C66182F84C60012616659768166C366807
:103BB000D6F808C0BC45FAD21660776857603A60FC
:103BC0007260002282F311881A07B6D524F400042B
:103BD000302282F31188026A82B1002606621665DD
:103BE00082F84C609768166C3668D6F808C0BC45F9
:103BF000FAD27768166057603A607260002282F3EA
:103C00001188DB069BD525F04005302383F311880E
:103C1000436A7BB1002242621A6583F84C209F6898
:103C20001A6C12689668BE42FBD256681A605E60D3
:103C300033605360002383F3118880E710220A6207
:103C400024F08054302282F311888269002AB8D08F
:103C500000268661166582F84C609768166C366897
:103C6000D6F808C0BC45A7D3F9E725F010053022E7
:103C700082F31188C2697AB1C661166582F84C6018
:103C80009768166C3668D6F808C0BC45FAD27768D3
:103C9000166057603A607260002282F3118847E72D
:103CA0003C08002000ED00E00000000000000000E3
:103CB0002DE9F0474FF080463369F2681340DAB2DD
:103CC000D2439B07326105D4444B4FF080525A6077
:103CD000BDE8F087302383F31188414D4FF0000990
:103CE00005F110074FF030082C69EB69716AA26882
:103CF000C81A904203EB020A34D3D4E90032C5F863
:103D00001CA013605A60C4F800902B69BB4208BF26
:103D1000C6F80C9089F31188D4E9033120469847FE
:103D200088F311886369002BDED0716AA1EB0A0069
:103D300083422FD32A69BA4246D091688B4204D974
:103D400012685B1A91689942FAD3A3609168226065
:103D5000CB1A516861600C60C2E901434FF0FF3338
:103D6000AB61BFE7BC420CD013445B1A022BE96184
:103D7000A36038BF0223CA187263726A511A8B4259
:103D800011D9002383F31188144B4FF080525A60ED
:103D9000BDE8F0876B6B2A6943F00203BA426B639C
:103DA00018D00346C9E702234FF080410133D018F1
:103DB0004863486A821A9A420ED2022BE1D96B6B91
:103DC00043F001036B63DCE753445A1A2046FCF7C7
:103DD00097FED6E70022F9E70246E7E700ED00E0AC
:103DE000D0090020000000000000000000000000DA
:103DF00008B5094B19689A6801F00E01114205D007
:103E0000064A596093680BB1D0689847044B4FF04D
:103E100080525A6008BD00BF00000240C80B00205D
:103E200000ED00E0000000000000000000000000C5
:103E30000C4B1968DA69090901F00E0111420CD026
:103E4000094810B504690A015A600CB14069A047DD
:103E5000064B4FF080525A6010BD044B4FF0805219
:103E60005A60704700000240C80B002000ED00E0DF
:103E70000C4B19681A6B090A01F00E0111420CD0A3
:103E8000094810B584690A025A600CB1C069A0479C
:103E9000064B4FF080525A6010BD044B4FF08052D9
:103EA0005A60704700000240C80B002000ED00E09F
:103EB0000C4B19685A6C090B01F00E0111420CD021
:103EC000094810B5046A0A035A600CB1406AA04759
:103ED000064B4FF080525A6010BD044B4FF0805299
:103EE0005A60704700000240C80B002000ED00E05F
:103EF0000C4B19689A6D090C01F00E0111420CD09F
:103F0000094810B5846A0A045A600CB1C06AA04717
:103F1000064B4FF080525A6010BD044B4FF0805258
:103F20005A60704700000240C80B002000ED00E01E
:103F30000C4B1968DA6E090D01F00E0111420CD01C
:103F4000094810B5046B0A055A600CB1406BA047D4
:103F5000064B4FF080525A6010BD044B4FF0805218
:103F60005A60704700000240C80B002000ED00E0DE
:103F70000D4B1968D3F88020090E01F00E01114293
:103F80000CD00A4810B5846B0A065A600CB1C06B9D
:103F9000A047074B4FF080525A6010BD044B4FF0C2
:103FA00080525A60704700BF00000240C80B0020DA
:103FB00000ED00E000000000000000000000000034
:103FC0000D4B1968D3F89420090F01F00E0111422E
:103FD0000CD00A4810B5046C0A075A600CB1406C4A
:103FE000A047074B4FF080525A6010BD044B4FF072
:103FF00080525A60704700BF00000240C80B00208A
:1040000000ED00E0000000000000000000000000E3
:1040100008B5094B19689A6801F00E01114205D0E4
:10402000064A5960936C0BB1D06C9847044B4FF023
:1040300080525A6008BD00BF00040240C80B002037
:1040400000ED00E0000000000000000000000000A3
:104050000C4B1968DA69090901F00E0111420CD004
:10406000094810B5046D0A015A600CB1406DA047B3
:10407000064B4FF080525A6010BD044B4FF08052F7
:104080005A60704700040240C80B002000ED00E0B9
:104090000C4B19681A6B090A01F00E0111420CD081
:1040A000094810B5846D0A025A600CB1C06DA04772
:1040B000064B4FF080525A6010BD044B4FF08052B7
:1040C0005A60704700040240C80B002000ED00E079
:1040D0000C4B19685A6C090B01F00E0111420CD0FF
:1040E000094810B5046E0A035A600CB1406EA0472F
:1040F000064B4FF080525A6010BD044B4FF0805277
:104100005A60704700040240C80B002000ED00E038
:104110000C4B19689A6D090C01F00E0111420CD07C
:10412000094810B5846E0A045A600CB1C06EA047ED
:10413000064B4FF080525A6010BD044B4FF0805236
:104140005A60704700040240C80B002000ED00E0F8
:104150000C4B1968DA6E090D01F00E0111420CD0FA
:10416000094810B5046F0A055A600CB1406FA047AA
:10417000064B4FF080525A6010BD044B4FF08052F6
:104180005A60704700040240C80B002000ED00E0B8
:104190000D4B1968D3F88020090E01F00E01114271
:1041A0000CD00A4810B5846F0A065A600CB1C06F73
:1041B000A047074B4FF080525A6010BD044B4FF0A0
:1041C00080525A60704700BF00040240C80B0020B4
:1041D00000ED00E000000000000000000000000012
:1041E0000E4B1968D3F89420090F01F00E0111420B
:1041F0000ED00B4810B5D0F880400A075A6014B1B1
:10420000D0F88400A047074B4FF080525A6010BD91
:10421000044B4FF080525A60704700BF00040240C8
:10422000C80B002000ED00E00000000000000000CE
:1042300071490A6B936903F0FE0070B4D06113F00A
:10424000100056D113F0800C36D15B062ED50B78BA
:10425000032B00F09C80886A4468236823F00F03D6
:104260002360047C00680E23A3404360536843F43A
:1042700080435360136823F040033020136080F3C1
:104280001188CB697BB100201A6C9C681865C861E5
:1042900083F84C0012689168A142FBD25168C3E9CF
:1042A00000210B605360002383F31188534B4FF0C0
:1042B000805270BC5A6070470B78032B4FD08B6ACA
:1042C0004C685B68A4685B685168FF2B94BF1B0453
:1042D0004FF47F0321F0FF7143EA040321F480319E
:1042E00088BF4FF080700B43034343F480635360F7
:1042F000DCE7CB6A5C68206820F00F002060187C47
:104300001C680E2303FA00F06060886AD0E900653B
:104310002C6824F00F042C60007C83407360536889
:10432000886843F4804340F0040088605360136859
:1043300023F046033020136080F31188CB69002BF3
:10434000B1D06FF0010400201C651A6C9C68C86134
:1043500083F84C0012689168A1429FD3FAE7CB6AB8
:1043600049685B6889685C68536823F0FF73FF2CB9
:1043700023F4803394BF24044FF47F0443EA010301
:1043800088BF4FF080702343034353608EE7C86AB1
:104390008B6A44685D68236823F00F032360047C04
:1043A00000680E23A34043606B68002B3FF45EAFB0
:1043B0006B684868FF2B806894BF1B044FF47F0331
:1043C00043EA0003506820F0FF7020F4803043EA95
:1043D000000388BF4FF0807C43EA0C0C4CF48063F0
:1043E00053602B6843F001032B605368042043F4AF
:1043F00000530870536059E70808002000ED00E002
:104400002B4AD2E90B30816970B401F47C54C46149
:104410005C68206820F00F002060187C1C680E2368
:1044200003FA00F06060906AD0E900652C6824F01F
:104430000F042C60007C834073609368CE0544BFFA
:1044400043F0010393608D0544BF43F00203936082
:104450004C0527D543F00803C804936002D543F008
:1044600020039360302383F31188D3698BB16FF0FD
:10447000010400201C65196C9C68D06183F84C0015
:1044800009688A68A242FBD24A68C3E90012136035
:104490004B60002383F31188064B4FF0805270BCB1
:1044A0005A607047C904DAD4002BF5D0DAE700BFB0
:1044B0000808002000ED00E00000000000000000FF
:1044C000984A9948D36A43F07F0330B4D362D46AE0
:1044D00024F07F04D462D46AD46C44F07F04D464A2
:1044E000D46E4FF0904144F07F040023D4668F4C8B
:1044F000D56E4B608C604FF01054CC604FF44C4440
:104500004B610C628A4C4B620C60C02443606FF0BC
:10451000406584606FF04004C36001F50061436151
:10452000036243620460834C4B604FF0FF308B604A
:10453000CB604B610B624B620D60636001F5006103
:10454000A360E36063612362636220604B608B6001
:10455000CB604B610B624B620860C4F80438C4F84E
:104560000838C4F80C38C4F81438C4F82038C4F833
:104570002438C4F80008C1F80438C1F80838C1F874
:104580000C38C1F81438C1F82038C1F82438C1F803
:104590000008916A9062916A9362916AD46A66494E
:1045A00064F07F04D462D46A04F07F04D462D46AD5
:1045B000146B1063146B1363146B946B9063946BA4
:1045C0009363946BD46BD063D46BD363D46B146C50
:1045D0001064106C1364106C106E40F001001066D3
:1045E000D2F8800020F00100C2F88000D2F88000EC
:1045F000906D40F080509065906F20F080509067F3
:104600004FF40044906F8C60CB600B624B628B6206
:10461000CB620B634B638B63CB630B644B648B6428
:10462000CB640B654B65086840F480700860D2F875
:10463000901001F44071B1F5807F05D04FF48031C6
:10464000C2F89010C2F89030364AD2F8903043F059
:104650001903C2F89030D2F890309B07FBD5374B46
:1046600035494FF4806494600020C2F888304FF4DC
:104670000073C2F89C000B604B6913F4C06FFBD150
:10468000284A936803F00C03042B61D1254B1A6868
:1046900042F480321A601A689003FCD5D3F898105F
:1046A000204A41F00101C3F89810D2F898309907D8
:1046B000FBD52349234B1B48D160136003689A0143
:1046C000FCD58368204A214903F0030343F4806347
:1046D0008360116013684B4013F00F03FAD1164A40
:1046E0004FF440704FF4807110605360C2F8801036
:1046F00053699B05FCD40B4A936843F0030341F2D2
:104700000C01936093684B4013F00C0FFAD1D2F870
:10471000903023F0032343F4807330BCC2F8903010
:10472000704700BF0010024000040048000C003C2D
:10473000AFF7FFEB000C004800700040550100503F
:1047400053556101000301010020024004070400E9
:10475000136843F48073136013685D05FCD501236F
:104760000D4993608B6803F00C03042BFAD10B4ABC
:104770000B4B1360136813F00F03FBD1064A632140
:10478000C2F89830116013689C03FCD4054B4FF4B9
:104790008072C3F8802079E70010024000200240B8
:1047A000000604000070004000000000000000004F
:1047B00070B5302383F311881D4BD9684A6D0865A5
:1047C00001F1540C944518BF4FF0000E11D191F82F
:1047D0004E201AB318680F2281F84C2002681A6024
:1047E0004FF0010C536080F84CC0D86000DF70BD02
:1047F00022461468106C96684C6582F84CE000689C
:104800008568B542FBD245681060644555602A60F2
:104810004260EDD191F84E20002ADBD191F84D2075
:104820009207D7D1D1E90E2002605060D2E700BFD5
:10483000D00900200000000000000000000000007F
:1048400010B4302383F31188114AD3681068996833
:1048500084688C4216D9046814606260012480F870
:104860004C40D06000241A6C83F84C401268946865
:10487000A142FBD3516810BCC3E900210B6019466B
:1048800053607047002080F31188014610BC7047C8
:10489000D00900200000000000000000000000001F
:1048A0002DE98048044A054B05480021C2E9001162
:1048B00089B003F5A07407E0C80B002030AD0108F3
:1048C0000800024053F8140C016014339C4242F873
:1048D000081FF7D1BB4ABC494FF0FF304FF0E0232F
:1048E000486050605C680022930003F1604303F568
:1048F00061439442C3F8800002F10102C3F88001D1
:10490000F2D1B24A60234021802482F806334FF46A
:104910008070C2F88011116082F80733C2F88041BC
:1049200014604FF4007482F80833C2F880011060FC
:1049300082F80933C2F8804114604FF4806482F831
:104940000A33C2F8804114604FF4000482F8173330
:10495000C2F88041146082F828339D4BC2F884016C
:104960004FF080555060C0244FF00060702682F8F0
:104970001C63C2F88051156082F82643C2F8841186
:10498000516082F85B4303F58071C2F88801906042
:104990000022C3E90033C3E9022210338B42F8D16D
:1049A0008C4B8D4C1C638D4C5A60012103F10C0023
:1049B0001970C3E90300C3E90A225A61DA61234688
:1049C000874843F8040B6360864BA36104F10C0035
:1049D000C4E90300C4E9083303F1100004F1300313
:1049E000C4E90C33804BE06110206261A0631818A9
:1049F00020647E487E4DE0647E48E363C4E9113361
:104A00007D4B2172C4E915507C482465C4E90A2411
:104A100018607B4898627B481971D862C3E902220A
:104A2000C3E90422C3E90622C3E90822764B774E84
:104A3000986D08439865986F0843986774489B6F12
:104A400083680B4383604FF0804344F26720986291
:104A50004FF0FF30D8629A615A63DA605A60596148
:104A600019600290317000200021C6E90122CDE9D1
:104A700003220592CDE90601042502A8FBF718FFE1
:104A8000FBF71EFF013DF8D1624B029AB260624A09
:104A90001A60624A5A60624B624A1A6003F10C0261
:104AA000C3E90322604A61491162916302F1100176
:104AB000116102F12401516202F12801916202F1B7
:104AC0003C01D16302F14001C3E901555D6111640C
:104AD000574B956002F14401516456499963142182
:104AE0004FF0040C91611C21C2E900225561D5628E
:104AF00073601D63C2F81CC0C2F834C011634FF06C
:104B0000300888F3118862B6C3E927554A4A9D6088
:104B10005D63DD61D068DB674FF6FF010840474900
:104B2000C3F884500143D160D2F8FC10444841F0EE
:104B30008071C2F8FC10016841F00101016020277A
:104B4000F021D77782F822104FF0804203F1100154
:104B5000526A0192C3E9041103F12801996703F134
:104B60009401C3E9251180215964C3F8A41003F10D
:104B70009001C3F8901003F13C01D96031490198CC
:104B8000C3F880104FF0FF312F4A9961012703F1DC
:104B9000740A2946A3F8887083F88A70C3F828A09D
:104BA000C3E908014FF00200307002F14000D06606
:104BB000264850676FF00200C2F8940024489065C0
:104BC00048E000BF000402400000024000E100E0B5
:104BD000CC08002008080020005400406C08002089
:104BE00030AF0108141D0020241D002061080008BA
:104BF0000044004080FE210A3C08002058AF010814
:104C00000080004040FF100500100240A00B002073
:104C1000002004E0980B0020E8240020000002207F
:104C2000AC0B002011090008500B002051090008AE
:104C3000D009002058AE010800ED00E00003FA059D
:104C4000001000E06CAE0108800A0020A1080008F6
:104C50000D03000803F128014FF0807002F1980B5A
:104C6000C2E9261A02F1B80902F1600ED06502F11C
:104C7000B4016748C3F8AC50C2E93055C2E92E9977
:104C8000C2E91833C3E900EEC2F8A820C2F8A400B4
:104C9000C2F8B410C2F8708095679766C2F8A03069
:104CA000C2F8C87082F8AE70C3F874B0C3F82CB004
:104CB000A2F8AC5085F311884FF09040614640F265
:104CC0008232FBF75DFD40F282320821FBF758FD8E
:104CD00088F31188237ABB4209D14E4B9A6D42F476
:104CE00000329A659A6F42F400329A679B6FA36D07
:104CF0004949626D03F59643A1FB03131B0BD36077
:104D00004020012540F22D1350604FF0FF31956097
:104D1000136002231162237284F85C10002383F372
:104D200011883E4E3E4B304640F23E224FF4807199
:104D30001C60FBF725FD3B4C40F23E224FF4007116
:104D4000FBF71EFD384B394880224FF49261FCF787
:104D500037FA20462A462946FBF712FD4FF09040CD
:104D60002A462946FBF70CFD2A462021FBF708FDC1
:104D70002A464FF48071FBF703FD2A464FF4007179
:104D8000FBF7FEFC30462A462946FBF7F9FC2A468B
:104D90004FF48061FBF7F4FC2A461021FBF7F0FC8E
:104DA0002A462021FBF7ECFC2A460821FBF7E8FC09
:104DB0004FF0904320224FF4807125831D835A8346
:104DC00059834FF4007159834FF48063358308246D
:104DD00033831023338316483283164B3483812266
:104DE0004FF4C8717483FCF7EBF9134B134880221E
:104DF0004FF4C871FCF7E4F9302484F3118841F2D0
:104E000088310820FBF7ACFE002383F31188F4E718
:104E10001056000800100240B5814E1B00040048E7
:104E2000600C002000080048D12300085820002012
:104E3000381D00207111000851200008C81E0020F4
:104E400088420DD98B1883420AD900EB020CBAB103
:104E5000624613F801CD02F801CD9942F9D17047AD
:104E60000F2A0ED8034602F1FF3C4AB10CF1010CA7
:104E7000013B8C4411F8012B03F8012F6145F9D156
:104E8000704740EA01039B0750D1A2F1100370B5AF
:104E900001F1200C23F00F0501F1100E00F11004B8
:104EA000AC441B095EF8105C44F8105C5EF80C5CC6
:104EB00044F80C5C5EF8085C44F8085C5EF8045C3E
:104EC00044F8045C0EF1100EE64504F11004E9D13B
:104ED000013312F00C0F01EB031102F00F0400EB91
:104EE000031327D0043C24F003064FEA940C1E441D
:104EF0001C1F8E465EF8045B44F8045FB442F9D18F
:104F00000CF1010402F0030203EB840301EB8401C2
:104F100002F1FF3C4AB10CF1010C013B8C4411F849
:104F2000012B03F8012F6145F9D170BD02F1FF3C5F
:104F300003469BE72246EBE7830730B548D0541E73
:104F4000002A3FD0CAB2034601E0013C3AD303F83D
:104F5000012B9D07F9D1032C2DD9CDB245EA0525AA
:104F60000F2C45EA054536D9A4F1100222F00F0CAA
:104F700003F1200EE6444FEA121C03F1100242E94D
:104F8000045542E9025510327245F8D10CF1010284
:104F900014F00C0F03EB021204F00F0C13D0ACF161
:104FA000040323F003030433134442F8045B9342E5
:104FB000FBD10CF003042CB1CAB21C4403F8012B42
:104FC0009C42FBD130BD64461346002CF4D1F9E776
:0C4FD00003461446BFE71A46A446E0E77B
:104FDC00000000000000000F00020008007800082C
:104FEC00000000080F040400081010070000000F58
:104FFC00030101E49FD800C0032009600B080817C7
:10500C00080808039FE401400000000000000000B5
:10501C000000000001E00020000000209FF800408C
:10502C00171717179FFC0404000046A400003766EE
:10503C000000266000001CBC000017730000112546
:10504C000000110700000E6300008B4C000060A2F2
:10505C0000003DC0000026AA00001BC2000018047E
:10506C0000001497000010ED0001281B000093F0C5
:10507C00000057610000302B000020AA00001AB677
:10508C00000015C30000160E00017FBB0000AD58D8
:10509C00000071AF000036D9000022FB00001C9606
:1050AC00000018830000179600019000000097D6AE
:1050BC000000663B0000330A000020CD00001938C8
:1050CC00000016A5000014BB0000AFCF0000657DEA
:1050DC0000003D93000029D10000194E000015BAC4
:1050EC00000011C60000127F0000731D0000422C4E
:1050FC0000002E8200001E800000181C0000132DE2
:10510C0000000FC600000F8500004F04000033E9BB
:10511C0000001F06000018400000132C000012971E
:10512C0000000E0100000DACA0FC0100000000000E
:10513C00000000030000000000000000A10C0100B2
:10514C0000000080000000030000000000000000D0
:10515C00A11C00C0000070EB0C8001E000000026D8
:10516C00A12809020000000000000000000000005F
:10517C00000100000036000301D90143023302177D
:10518C00024B0241011702220027005D00050011AD
:10519C000000000100000000000000000000000002
:1051AC0000000000000000000000000000000000F3
:1051BC0000000000000000000000000000000000E3
:1051CC0000000000000000000000000000000000D3
:1051DC0000000000000000000000000000000000C3
:1051EC0000000000000000000000000000000000B3
:1051FC0000000000000000000000000000000000A3
:10520C000000000000000000000000000000000092
:10521C000000000000000000000000000000000082
:10522C000000000000000000000000000000000072
:10523C000000000000000000000000000000000062
:10524C000000000000000000000000000000000052
:10525C000000000000000000000000000000000042
:10526C000000000000000000000000000000000032
:10527C000000000000000000000000000000000022
:10528C0000000000A248004000000000A24C008179
:10529C000000000000000000A2540081000000008B
:1052AC0000000000A25C0081000000000000000073
:1052BC00A26400810000000000000000A26C0084C9
:1052CC0000000000000000000000000000000000D2
:1052DC0000000000000000000000000000000000C2
:1052EC00A28C008200000000000000000000000002
:1052FC00000000000000000F05010304070000007F
:10530C000000000000000000000000C00D000000C4
:10531C00C000B4544000C0540401D0540404D0550F
:10532C00010484DB0404C4DB0204C4DE020444DF95
:10533C00010444E0010484E0C00858D8626C696E32
:10534C006B6572006E6F6E616D650000286E756C1A
:10535C006C290000636F6E73756D65720000000040
:10536C000D0A5B2121215D2053495354454D4120A9
:10537C00415454495641544F205B2121215D0D0A63
:10538C000D0A00000D0A3C2D2D2D20415A494F4E7F
:10539C00452053494E49535452412052494C45568D
:1053AC004154412120284D616E6F2041706572740B
:1053BC00612F436869757361290D0A000D0A2D2D43
:1053CC002D3E20415A494F4E45204445535452419D
:1053DC002052494C45564154412120284D616E6F55
:1053EC00204170657274612F436869757361290D72
:1053FC000A0000000F04041708101007000000003A
:10540C006765737475726500564C35334C37435869
:10541C00206E6F74206465746563746564206174B8
:10542C00207265717565737465642061646472655E
:10543C0073730D0A00000000564C35334C3743583B
:10544C0020554C44204C6F6164696E67206661691D
:10545C006C65640D0A000000564C35334C374358CC
:10546C005F322E302E300000564C35334C374358BB
:10547C0020554C44207265616479202120285665A2
:10548C007273696F6E203A202573290D0A00000093
:10549C004D6F74696F6E20696E64696361746F72AD
:1054AC0020696E6974206661696C65642077697423
:1054BC006820737461747573203A2025750D0A0089
:1054CC004D6F74696F6E20696E64696361746F727D
:1054DC00207365742064697374616E6365206D6FED
:1054EC0074696F6E206661696C6564207769746895
:1054FC0020737461747573203A2025750D0A0000B1
:10550C00766C35336C3763785F7365745F72616E7C
:10551C0067696E675F6672657175656E63795F68E2
:10552C007A206661696C65642C2073746174757380
:10553C002025750D0A000000766C35336C376378C6
:10554C005F73746172745F72616E67696E672066F7
:10555C0061696C65642C2073746174757320257596
:10556C000D0A00005B57616B652D75705D205469E9
:10557C006D656F75742C20726970726F76612E0D6B
:10558C000A0000005B57616B652D75705D20312F33
:10559C0034202D205072696D6F206D6F76696D65AA
:1055AC006E746F2028546F743A20256C75290D0A7F
:1055BC00000000005B57616B652D75705D20322F0C
:1055CC0034202D204D616E6F206665726D612E2E1C
:1055DC002E0D0A005B57616B652D75705D20332FA6
:1055EC0034202D205365636F6E646F206D6F766968
:1055FC006D656E746F2028546F743A20256C752974
:10560C000D0A000069646C65000000006330000046
:10561C00545000800004040400000808AD300080E1
:10562C000201030300000300AD38010001E001405A
:10563C0000400040010004000000000154580040EC
:10564C00041A0100545C01400000271000000FA058
:10565C000FA003E802801F4000000500547000807A
:10566C0003200320000000085478010001130029D6
:10567C0000330000020000010401080254880140BC
:10568C00000000000000000000000000000000000E
:10569C0000000C00AD48010001F4000003060010EE
:1056AC000807080700000008AD600100000000803A
:1056BC0000000000201F01F400001D0AAD700080E6
:1056CC0008001F4000000001AD78008000A00320FE
:1056DC0000010190AD80004000002800AD840080E6
:1056EC000000320003200000AD8C00800258FF380F
:1056FC000000000CAD94010000019000FFFFFC00C5
:10570C000000040000000101ADA400C00480061AD2
:10571C000040058000000106ADB000C00480061AF0
:10572C001900058000000190ADBC04400000000091
:10573C00000000000012002500000006000000051B
:10574C000000000500000006000000040000000F2F
:10575C000000005A00000000000000090B0C0B0BAD
:10576C00030311050101010100000000000D000000
:10577C00AE00010400000004000000080000000A54
:10578C000000000C0000000D0000000E00000008DE
:10579C0000000008000000100000001000000020B5
:1057AC0000000020000000060000050A02000C08A2
:1057BC0000000000AE400040000001FFAE4400407D
:1057CC0000100401AE48004000001000AE4C004038
:1057DC0000000001AE50014000000014040028003D
:1057EC0003206C000000000000002580AE64004027
:1057FC0000000002AED8010000C805DC00000CCD92
:10580C000104000000002601B550028200000000D7
:10581C00000000000000000000000000000000007C
:10582C00000000000000000000000000000000006C
:10583C00000000000000000000000000000000005C
:10584C00000000000000000000000000000000004C
:10585C00000000000000000000000000B5A0028263
:10586C00000000000000000000000000000000002C
:10587C00000000000000000000000000000000001C
:10588C00000000000000000000000000000000000C
:10589C0000000000000000000000000000000000FC
:1058AC0000000000000000000000000000000000EC
:1058BC00B5F0004000FF0000B39C0100349B0435A0
:1058CC00021B087C8001120100000800B6C000C059
:1058DC00000060000000200000000000AEA80040A6
:1058EC0000000405AEAC00800100010000020000C5
:1058FC00AEB4004000000000AEB800810000000013
:10590C0000000000AEC0008100000000000000009C
:10591C00AEC800810801010800000008AED000816B
:10592C000108080800000001B5F400800000000028
:10593C0000000000B5FC008000000000000000002A
:10594C00B604004000000000B6080044000000004F
:10595C00000000000000000000000000B618004429
:10596C00000000000000000000000000000000002B
:10597C00B6280044000000000000000000000000F9
:10598C0000000000B63800440000000000000000D9
:10599C000000000000000000B648010000000000FC
:1059AC00000000000000000000000000B6580100DC
:1059BC0000000000000000000000000000000000DB
:1059CC00B6680100000000000000000000000000AC
:1059DC00000000000000000F000103C89FD800C0A9
:1059EC00032009600B080817080808039FE401400E
:1059FC0000000000000000000000000001E000209A
:105A0C00000000209FF80040171717179FFC040494
:105A1C00000046A4000037660000266000001CBC95
:105A2C0000001773000011250000110700000E6321
:105A3C0000008B4C000060A200003DC0000026AAB4
:105A4C0000001BC20000180400001497000010EDA9
:105A5C000001281B000093F0000057610000302B60
:105A6C00000020AA00001AB6000015C30000160E94
:105A7C0000017FBB0000AD58000071AF000036D9AB
:105A8C00000022FB00001C960000188300001796F3
:105A9C0000019000000097D60000663B0000330A1E
:105AAC00000020CD00001938000016A5000014BB22
:105ABC000000AFCF0000657D00003D93000029D1B0
:105ACC000000194E000015BA000011C60000127F2C
