:020000040800F2
:1000000000040020B9020008BB020008BB0200087F
:10001000BB020008BB020008BB020008BB020008CC
:10002000BB020008BB020008BB020008C1020008B6
:10003000BB020008BB020008DF020008BB02000888
:10004000BB020008BB020008BB020008BB0200089C
:10005000BB020008BB02000871200008F120000864
:1000600071210008F121000871220008D12D00083B
:10007000F12D0008112E0008312E0008512E000825
:10008000712E0008912E0008BB020008BB02000878
:10009000BB020008BB020008BB020008F1220008F6
:1000A000BB020008BB020008BB020008BB0200083C
:1000B00031270008BB02000871270008D139000869
:1000C000113A0008BB020008BB020008BB0200088E
:1000D000BB020008BB02000891260008BB02000812
:1000E00041240008BB020008BB020008BB02000854
:1000F000BB020008BB020008BB020008BB020008EC
:10010000BB020008BB020008BB020008BB020008DB
:10011000BB020008BB020008BB020008BB020008CB
:10012000D12E0008F12E0008112F0008312F0008F1
:10013000512F0008BB020008BB020008BB020008E8
:10014000BB020008BB020008BB020008BB0200089B
:10015000BB020008BB020008BB020008BB0200088B
:10016000BB020008BB020008BB020008BB0200087B
:10017000BB020008BB020008BB020008BB0200086B
:10018000BB020008BB020008BB020008BB0200085B
:10019000BB020008BB020008BB020008BB0200084B
:1001A000BB020008BB020008BB020008F1260008E1
:1001B000BB020008BB020008BB020008BB0200082B
:1001C000B12E0008712F0008912F0008B12F0008F0
:1001D000BB020008BB020008BB020008BB0200080B
:1001E00072B6264880F30888254880F30988254898
:1001F00025490860022080F31488BFF36F8F00F058
:100200004FFD04F0CDFC4FF0553020491B4A914280
:100210003CBF41F8040BFAE71D49194A91423CBF23
:1002200041F8040BFAE71B491B4A1C4B9A423EBF9C
:1002300051F8040B42F8040BF8E700201849194A5A
:1002400091423CBF41F8040BFAE700F041FD00F099
:100250002FFD154C154DAC4203DA54F8041B8847AA
:10026000F9E708F01DFF124C124DAC4203DA54F8C6
:10027000041B8847F9E700F023BD000000040020BC
:10028000000800200000000808ED00E00000002049
:1002900000040020D0FC0108000800207C08002099
:1002A0008008002010280020E0010008E00100087C
:1002B000E0010008E001000892E700F000F8FEE726
:1002C000EFF309820C31EFF31183A1E8FC4F0C30FE
:1002D000B0E8FC4F82F3098883F311887047EFF38D
:1002E000118308B506F03CF9002808BF08BDBDE839
:1002F00008400C31EFF30982A1E8FC4F0C30B0E864
:10030000FC4F82F3098883F311887047002383F33D
:1003100011882846A047002005F002FDFEE70000F6
:10032000844641EA000313F003036DD1403A41D300
:1003300051F8043B40F8043B51F8043B40F8043BBF
:1003400051F8043B40F8043B51F8043B40F8043BAF
:1003500051F8043B40F8043B51F8043B40F8043B9F
:1003600051F8043B40F8043B51F8043B40F8043B8F
:1003700051F8043B40F8043B51F8043B40F8043B7F
:1003800051F8043B40F8043B51F8043B40F8043B6F
:1003900051F8043B40F8043B51F8043B40F8043B5F
:1003A00051F8043B40F8043B51F8043B40F8043B4F
:1003B000403ABDD2303211D351F8043B40F8043BEF
:1003C00051F8043B40F8043B51F8043B40F8043B2F
:1003D00051F8043B40F8043B103AEDD20C3205D3FF
:1003E00051F8043B40F8043B043AF9D2043208D0F7
:1003F000D2071CBF11F8013B00F8013B01D30B8869
:1004000003806046704700BF082A13D38B078DD046
:1004100010F003038AD0C3F10403D21ADB071CBF18
:1004200011F8013B00F8013B80D331F8023B20F882
:10043000023B7BE7043AD9D3013A11F8013B00F8BB
:10044000013BF9D20B7803704B7843708B78837043
:100450006046704780F0004002E000BF81F000413C
:1004600042001FBF5FEA410392EA030F7FEA226C5A
:100470007FEA236C6AD04FEA1262D2EB1363C1BFEA
:10048000D218414048404140B8BF5B42192B88BF59
:10049000704710F0004F40F4000020F07F4018BF7C
:1004A000404211F0004F41F4000121F07F4118BF9C
:1004B000494292EA030F3FD0A2F1010241FA03FC44
:1004C00010EB0C00C3F1200301FA03F100F000432C
:1004D00002D5494260EB4000B0F5000F13D3B0F1F4
:1004E000807F06D340084FEA310102F10102FE2A63
:1004F00051D2B1F1004F40EBC25008BF20F00100D3
:1005000040EA03007047490040EB0000013A28BF71
:10051000B0F5000FEDD2B0FA80FCACF1080CB2EBF4
:100520000C0200FA0CF0AABF00EBC2505242184372
:10053000BCBFD0401843704792F0000F81F4000117
:1005400006BF80F400000132013BB5E74FEA4103EA
:100550007FEA226C18BF7FEA236C21D092EA030F56
:1005600004D092F0000F08BF0846704790EA010FD0
:100570001CBF0020704712F07F4F04D1400028BFFD
:1005800040F00040704712F100723CBF00F50000DF
:10059000704700F0004343F0FE4040F40000704715
:1005A0007FEA226216BF08467FEA236301464202C1
:1005B00006BF5FEA412390EA010F40F480007047D4
:1005C0004FF0000304E000BF10F0004348BF40427A
:1005D0005FEA000C08BF704743F0964301464FF0B6
:1005E00000001CE050EA010208BF70474FF0000312
:1005F0000AE000BF50EA010208BF704711F0004353
:1006000002D5404261EB41015FEA010C02BF844622
:100610000146002043F0B64308BFA3F18053A3F581
:100620000003BCFA8CF2083AA3EBC25310DB01FAC8
:1006300002FC634400FA02FCC2F12002BCF1004F4C
:1006400020FA02F243EB020008BF20F001007047DD
:1006500002F1200201FA02FCC2F1200250EA4C0031
:1006600021FA02F243EB020008BF20EADC70704777
:100670004FF0FF0C1CEAD0521EBF1CEAD15392EA85
:100680000C0F93EA0C0F6FD01A4480EA010C400261
:1006900018BF5FEA41211ED04FF0006343EA5010BB
:1006A00043EA5111A0FB01310CF00040B1F5000FFD
:1006B0003EBF490041EAD3715B0040EA010062F1AC
:1006C0007F02FD2A1DD8B3F1004F40EBC25008BF96
:1006D00020F00100704790F0000F0CF0004C08BFB4
:1006E00049024CEA502040EA51207F3AC2BFD2F181
:1006F000FF0340EAC250704740F400004FF000038F
:10070000013A5DDC12F1190FDCBF00F000407047C8
:10071000C2F10002410021FA02F1C2F1200200FA06
:1007200002FC5FEA310040F1000053EA4C0308BFCD
:1007300020EADC70704792F0000F00F0004C02BF1E
:10074000400010F4000F013AF9D040EA0C0093F099
:10075000000F01F0004C02BF490011F4000F013BF3
:10076000F9D041EA0C018FE70CEAD15392EA0C0F61
:1007700018BF93EA0C0F0AD030F0004C18BF31F0CC
:10078000004CD8D180EA010000F00040704790F0A2
:10079000000F17BF90F0004F084691F0000F91F046
:1007A000004F14D092EA0C0F01D142020FD193EA0C
:1007B0000C0F03D14B0218BF084608D180EA010094
:1007C00000F0004040F0FE4040F40000704740F070
:1007D000FE4040F4400070474FF0FF0C1CEAD0523E
:1007E0001EBF1CEAD15392EA0C0F93EA0C0F69D09A
:1007F000A2EB030280EA010C49024FEA402037D005
:100800004FF0805343EA111143EA10130CF00040FB
:100810008B4238BF5B0042F17D024FF4000C8B42EB
:1008200024BF5B1A40EA0C00B3EB510F24BFA3EBCB
:10083000510340EA5C00B3EB910F24BFA3EB91039B
:1008400040EA9C00B3EBD10F24BFA3EBD10340EAF5
:10085000DC001B0118BF5FEA1C1CE0D1FD2A3FF63B
:1008600050AF8B4240EBC25008BF20F001007047F0
:100870000CF0004C4CEA50207F32C2BFD2F1FF0393
:1008800040EAC250704740F400004FF00003013AC4
:1008900037E792F0000F00F0004C02BF400010F468
:1008A000000F013AF9D040EA0C0093F0000F01F07C
:1008B000004C02BF490011F4000F013BF9D041EA9E
:1008C0000C0195E70CEAD15392EA0C0F08D14202D1
:1008D0007FF47DAF93EA0C0F7FF470AF084676E7A4
:1008E00093EA0C0F04D14B023FF44CAF08466EE77D
:1008F00030F0004C18BF31F0004CCAD130F000424B
:100900007FF45CAF31F000437FF43CAF5FE700BFA2
:100910004FEA4002B2F1FE4F0FD34FF09E03B3EB0C
:1009200012620DD94FEA002343F0004310F0004F4C
:1009300023FA02F018BF404270474FF000007047A2
:1009400012F1610F01D1420205D110F0004008BF41
:100950006FF0004070474FF00000704742000ED229
:10096000B2F1FE4F0BD34FF09E03B3EB126209D4EA
:100970004FEA002343F0004323FA02F070474FF0A0
:100980000000704712F1610F01D1420202D14FF015
:10099000FF3070474FF00000704700BF53B94AB9AD
:1009A000002908BF00281CBF4FF0FF314FF0FF3077
:1009B00000F074B9ADF1080C6DE904CE00F006F852
:1009C000DDF804E0DDE9022304B070472DE9F047CB
:1009D000089E0D4604468846002B4DD18A42944617
:1009E00068D9B2FA82F252B101FA02F3C2F12001DF
:1009F00020FA01F10CFA02FC41EA030894404FEAA4
:100A00001C45210CB8FBF5FE1FFA8CF705FB1E8375
:100A100041EA03430EFB07F199420BD91CEB030398
:100A20000EF1FF3080F01E81994240F21B81AEF141
:100A3000020E63445B1AA4B2B3FBF5F005FB10335E
:100A400044EA034400FB07F7A7420AD91CEB04045D
:100A500000F1FF3380F00881A74240F20581644431
:100A60000238E41B40EA0E4000211EB1D4400023AE
:100A7000C6E90043BDE8F0878B4208D9002E00F09C
:100A8000EE800021C6E900050846BDE8F087B3FA0C
:100A900083F100294AD1AB4202D3824200F2F980AD
:100AA000841A65EB030301209846002EE2D0C6E9C4
:100AB0000048DFE702B9FFDEB2FA82F2002A40F016
:100AC0009180A1EB0C054FEA1C471FFA8CFE012117
:100AD000B5FBF7F307FB1350250C45EA00450EFB69
:100AE00003F0A84208D91CEB050503F1FF3802D238
:100AF000A84200F2CB8043462D1AA4B2B5FBF7F012
:100B000007FB105544EA05440EFB00FEA64508D934
:100B10001CEB040400F1FF3502D2A64500F2BB80B5
:100B20002846A4EB0E0440EA03409EE7C1F12007EB
:100B30008B4022FA07FC4CEA030C20FA07F405FA72
:100B400001F31C43FD404FEA1C4900FA01F3B5FBD9
:100B5000F9F8200C1FFA8CFE09FB185540EA0545F0
:100B600008FB0EF0A84202FA01F20BD91CEB0505B6
:100B700008F1FF3A80F08880A84240F28580A8F111
:100B8000020865442D1AA4B2B5FBF9F009FB105513
:100B900044EA054500FB0EFEAE4508D91CEB0505F1
:100BA00000F1FF346CD2AE456AD90238654440EAA0
:100BB0000840A0FB0294A5EB0E05A542C846A64638
:100BC00056D353D05EB1B3EB080265EB0E0505FAC0
:100BD00007F722FA01F3CD401F43C6E90075002153
:100BE000BDE8F087C2F1200320FA03F10CFA02FC01
:100BF00025FA03F395400D434FEA1C471FFA8CFE7C
:100C0000B3FBF7F107FB11302B0C43EA004301FB68
:100C10000EF0984204FA02F408D91CEB030301F128
:100C2000FF382FD298422DD9023963441B1AADB236
:100C3000B3FBF7F007FB103345EA034500FB0EF367
:100C4000AB4208D91CEB050500F1FF3816D2AB42C8
:100C500014D902386544ED1A40EA014138E73146BB
:100C6000304607E78646E5E61846FAE64B45A9D240
:100C7000B9EB020864EB0C0E0138A3E74046EAE743
:100C8000204694E74146D1E7D0467BE7023B6544E6
:100C900032E7084609E76444023842E7704700BF7C
:100CA00000BF7047000000000000000000000000CE
:100CB00000BF7047000000000000000000000000BE
:100CC000FEE700BF00000000000000000000000080
:100CD00084B0174B0393039B1B680293039B5B68D1
:100CE000019309E0029B1A68019B1A60019B04337F
:100CF0000193029B04330293039B9B68019A9A42DF
:100D0000F0D305E0019B00221A60019B043301939C
:100D1000039BDB68019A9A42F4D3039B103303933D
:100D2000039B044A9342D6D300BF00BF04B0704770
:100D30005C9F0008DC9F000800000000000000002D
:100D400000BF70470000000000000000000000002D
:100D500008B5FFF7F5FF01F093FF02F0B9FA00F0D4
:100D6000D7FB00F075FC00F033FE01F029F803F02A
:100D70001FFF00F03DF800BF08BD00BF00000000ED
:100D80004FF080435B6A1846704700BF00000000C8
:100D900082B001904FF08042019B53634FF080433B
:100DA00000221A614FF080430222DA6000BF02B0D5
:100DB000704700BF000000000000000000000000BD
:100DC0004FF080430022DA6000BF7047000000004F
:100DD00082B001904FF08042019B536300BF02B08C
:100DE000704700BF0000000000000000000000008D
:100DF00008B502F0CDFF00BF08BD00BF0000000035
:100E000008B5FFF7BDFF0346184608BD0000000007
:100E100000B583B001900198FFF7BAFF00BF03B09F
:100E20005DF804FB0000000000000000000000006E
:100E300008B5FFF7C5FF00BF08BD00BF00000000F8
:100E400000B583B001900198FFF7C2FF00BF03B067
:100E50005DF804FB0000000000000000000000003E
:100E600082B00190019B019A1A60019B019A5A601D
:100E700000BF02B0704700BF00000000000000008B
:100E800082B030230193019B83F3118800BF00BF20
:100E900000BF02B0704700BF00000000000000006B
:100EA00082B000230193019B83F3118800BF00BF30
:100EB00000BF02B0704700BF00000000000000004B
:100EC00000B583B00190019B1846FFF7C9FF00BF32
:100ED00003B05DF804FB00BF00000000000000004C
:100EE00008B5FFF7CDFF00BF08BD00BF0000000040
:100EF00008B5FFF7D5FF00BF08BD00BF0000000028
:100F000000B583B001900198FFF7DAFF00BF03B08E
:100F10005DF804FB0000000000000000000000007D
:100F200000B583B0019000910099019804F098FFFA
:100F30000346184603B05DF804FB00BF0000000044
:100F400000B583B0019000910099019804F0A8FFCA
:100F500000BF03B05DF804FB0000000000000000CB
:100F600000B587B0039002910192039B9B68019AA0
:100F70009A4202D9039B9B680193039B1A69039BC6
:100F80009B69D31A0593019A059B9A420DD2039B44
:100F90009B69019A19460298FFF7C2F9039B9A6967
:100FA000019B1A44039B9A612BE0019A059B9A428C
:100FB0001CD9039B9B69059A19460298FFF7B0F963
:100FC000029A059B13440293019A059BD31A04933A
:100FD000039BDB68049A19460298FFF7A1F9039B6B
:100FE000DA68049B1A44039B9A610AE0039B9B699D
:100FF000019A19460298FFF793F9039BDA68039B5D
:101000009A61039B9A68019BD21A039B9A60019B89
:10101000184607B05DF804FB000000000000000067
:1010200000B587B0039002910192039B9B68019ADF
:101030009A4202D9039B9B680193039B1A69039B05
:101040005B69D31A0593019A059B9A420DD2039BC3
:101050005B69019A02991846FFF762F9039B5A6986
:10106000019B1A44039B5A612BE0019A059B9A420B
:101070001CD9039B5B69059A02991846FFF750F942
:10108000029A059B13440293019A059BD31A049379
:10109000039BDB68049A02991846FFF741F9039B0A
:1010A000DA68049B1A44039B5A610AE0039B5B695C
:1010B000019A02991846FFF733F9039BDA68039BFC
:1010C0005A61039B9A68019BD21A039B9A60019B09
:1010D000184607B05DF804FB0000000000000000A7
:1010E00000B585B00390029101920093039B1846CE
:1010F000FFF706FF039B00229A60039B029ADA60C7
:10110000039B029A9A61039B029A5A61029A019B7D
:101110001A44039B1A61039B009ADA61039B069AA7
:101120001A6200BF05B05DF804FB00BF00000000BC
:1011300000B583B001900B468DF80330019B5A69CE
:10114000019B9B699A4205D1019B9B68002B01D0B2
:10115000012300E0002303F00103DBB283F001036D
:10116000DBB2002B1DD0019B9B685A1C019B9A602F
:10117000019B5B69591C019A51619DF803201A700B
:10118000019B5A69019B1B699A4203D3019BDA6850
:10119000019B5A61019B00211846FFF7D1FE0023F5
:1011A00001E04FF0FF33184603B05DF804FB00BFC9
:1011B00000B585B001900091FFF792FE0CE0019B15
:1011C00000991846FFF7ACFE0290029B002B03DA51
:1011D000FFF78EFE029B26E0019B9B68002BEED062
:1011E000019B9B685A1E019B9A60019B9B69591C3D
:1011F000019A91611B788DF80F30019B9A69019BD0
:101200001B699A4203D3019BDA68019B9A61019B97
:10121000DB69002B03D0019BDB6901989847FFF73E
:1012200067FE9DF80F30184605B05DF804FB00BF5F
:1012300000B589B00390029101920093039BDB6992
:101240000793019B0693FFF74BFE24E0019A029956
:101250000398FFF785FE0590059B002B09D1039BA2
:1012600000991846FFF75CFE0490049B002B12D0F7
:1012700014E0079B002B02D0079B03989847FFF7C9
:1012800037FE019A059BD31A0193029A059B1344DA
:101290000293FFF725FE019B002BD7D1FFF728FE15
:1012A000069A019BD31A184609B05DF804FB00BFEB
:1012B00000B585B00390029101920093039B1846FC
:1012C000FFF71EFE039B019A9A60039B029ADA6065
:1012D000039B029A9A61039B029A5A61029A019BAC
:1012E0001A44039B1A61039B009ADA61039B069AD6
:1012F0001A6200BF05B05DF804FB00BF00000000EB
:1013000000B587B003900B4601928DF80B30FFF7C4
:10131000E7FD0CE0039B01991846FFF701FE0590DD
:10132000059B002B03DAFFF7E3FD059B25E0039BFC
:101330009B68002BEED0039B9B685A1E039B9A6010
:10134000039B5B69591C039A51619DF80B201A702D
:10135000039B5A69039B1B699A4203D3039BDA6878
:10136000039B5A61039BDB69002B03D0039BDB6962
:1013700003989847FFF7BCFD0023184607B05DF8B7
:1013800004FB00BF0000000000000000000000009F
:1013900000B585B00190019B5A69019B9B699A42F7
:1013A00005D1019B9B68002B01D0012300E00023A5
:1013B00003F00103DBB283F00103DBB2002B1ED08C
:1013C000019B9B685A1C019B9A60019B9B69591C5D
:1013D000019A91611B788DF80F30019B9A69019BEE
:1013E0001B699A4203D3019BDA68019B9A61019BB6
:1013F00000211846FFF7A4FD9DF80F3001E04FF0E3
:10140000FF33184605B05DF804FB00BF0000000084
:1014100000B589B00390029101920093039BDB69B0
:101420000793019B0693FFF75BFD24E0019A029965
:101430000398FFF7F5FD0590059B002B09D1039B51
:1014400000991846FFF76CFD0490049B002B12D006
:1014500014E0079B002B02D0079B03989847FFF7E7
:1014600047FD019A059BD31A0193029A059B1344E9
:101470000293FFF735FD019B002BD7D1FFF738FD15
:10148000069A019BD31A184609B05DF804FB00BF09
:1014900082B030230193019B83F3118800BF00BF0A
:1014A00000BF02B0704700BF000000000000000055
:1014B00082B000230193019B83F3118800BF00BF1A
:1014C00000BF02B0704700BF000000000000000035
:1014D00008B5FFF7DDFF00BF08BD00BF000000003A
:1014E00008B5FFF7E5FF00BF08BD00BF0000000022
:1014F00000B583B00190019804F092FD00BF03B0E5
:101500005DF804FB00000000000000000000000087
:1015100008B502F09DFA00BF08BD00BF0000000042
:1015200000B583B00190019B01221A70019B00223B
:101530005A60019B0C331846FFF7DAFF00BF03B077
:101540005DF804FB00000000000000000000000047
:1015500000B585B001900091FFF7BAFF019B009A9A
:101560005A60019802F08CFA00230393039B002B2E
:1015700003D1019B02221A7002E0019B01221A7022
:10158000FFF7AEFF039B184605B05DF804FB00BFF4
:1015900000B58BB00790059204930B46ADF81A3056
:1015A000FFF796FF079B00229A60079B03221A70A1
:1015B000BDF81A100E9B02930D9B01930C9B009398
:1015C000049B059A079802F0F3FA0990099BB3F17E
:1015D000FF3F03D1079B05221A7002E0079B0222FE
:1015E0001A70FFF77DFF099B18460BB05DF804FBEE
:1015F00082B030230193019B83F3118800BF00BFA9
:1016000000BF02B0704700BF0000000000000000F3
:1016100082B000230193019B83F3118800BF00BFB8
:1016200000BF02B0704700BF0000000000000000D3
:1016300008B5FFF7DDFF00BF08BD00BF00000000D8
:1016400008B5FFF7E5FF00BF08BD00BF00000000C0
:1016500008B502F00DFC00BF08BD00BF000000008F
:1016600082B00190019B01221A70019B00225A60F6
:10167000019B0022DA60019B00221A7400BF02B0B5
:10168000704700BF000000000000000000000000E4
:1016900000B585B001900091FFF7CAFF019B009A49
:1016A0005A60009B5A68019B9A60019B0022DA6095
:1016B000019802F0F5FB00230393039B002B03D159
:1016C000019B02221A7002E0019B01221A70FFF7AF
:1016D000B7FF039B184605B05DF804FB000000004F
:1016E00000B583B001900091FFF7A2FF019B009A23
:1016F0009A60019BDB69009A013ADA62FFF7A0FF6A
:1017000000BF03B05DF804FB000000000000000013
:1017100000B585B003900B4601928DF80B30FFF7B2
:1017200087FF039BDA689DF80B30012101FA03F370
:101730001A43039BDA609DF80B30019A194603980F
:1017400002F0E6FCFFF77CFF00BF05B05DF804FB8C
:1017500000B583B001900B468DF80330FFF768FFAA
:10176000019BDA689DF80330012101FA03F3DB43A2
:101770001A40019BDA609DF803301946019802F087
:10178000E7FCFFF75DFF00BF03B05DF804FB00BF9F
:1017900082B030230193019B83F3118800BF00BF07
:1017A00000BF02B0704700BF000000000000000052
:1017B00082B000230193019B83F3118800BF00BF17
:1017C00000BF02B0704700BF000000000000000032
:1017D00082B00190019B019A1A6000BF02B070476D
:1017E00008B5FFF7D5FF00BF08BD00BF000000002F
:1017F00008B5FFF7DDFF00BF08BD00BF0000000017
:1018000000B583B001900198FFF7E2FF00BF03B07D
:101810005DF804FB00000000000000000000000074
:1018200000B583B0019000910099019804F0B0FCDC
:1018300000BF03B05DF804FB0000000000000000E2
:1018400000B585B0039002910192039B03F1300033
:101850004FF0FF33019A0299FFF7DAFD034618466D
:1018600005B05DF804FB00BF0000000000000000B0
:1018700000B585B0039002910192039B03F10C0027
:101880004FF0FF33019A0299FFF7D2FC0346184646
:1018900005B05DF804FB00BF000000000000000080
:1018A00000B583B001900B468DF80330019B3033B7
:1018B0009DF803104FF0FF321846FFF721FD034655
:1018C000184603B05DF804FB0000000000000000B3
:1018D00000B583B00190019B0C334FF0FF311846E7
:1018E000FFF766FC0346184603B05DF804FB00BF33
:1018F00000B585B003900B4601928DF80B30039B29
:1019000030339DF80B10019A1846FFF7F9FC034697
:10191000184605B05DF804FB000000000000000060
:1019200000B583B001900091019B0C3300991846DB
:10193000FFF73EFC0346184603B05DF804FB00BF0A
:1019400000B585B00390029101920093039B03F1CF
:101950003000009B019A0299FFF75AFD0346184692
:1019600005B05DF804FB00BF0000000000000000AF
:1019700000B585B00390029101920093039B03F19F
:101980000C00009B019A0299FFF752FC034618468F
:1019900005B05DF804FB00BF00000000000000007F
:1019A00086B0039002910192039B0593029B002B4A
:1019B00003D0029B012B03D105E06FF0130303E07A
:1019C0006FF0130300E00023184606B0704700BF15
:1019D00008B502F045FD00BF08BD00BF00000000D3
:1019E00000B583B00190019B064A1A60019B043345
:1019F0001846FFF705FF019B01221A7200BF03B0D2
:101A00005DF804FBDC9F00080000000000000000FF
:101A100000B585B001900091FFF7E2FE00990198B2
:101A200002F04EFD00230393039B002B03D1019B87
:101A300002221A7202E0019B01221A72FFF7D8FEFD
:101A4000039B184605B05DF804FB00BF00000000D2
:101A500000B583B001900B468DF80330019B5B69A4
:101A6000002B05D1019B043304211846FFF7D8FE53
:101A7000019B0C339DF8032011461846FFF758FBD5
:101A80000346002B06DA019B04334FF4006118462D
:101A9000FFF7C6FE00BF03B05DF804FB00000000C6
:101AA00082B030230193019B83F3118800BF00BFF4
:101AB00000BF02B0704700BF00000000000000003F
:101AC00082B000230193019B83F3118800BF00BF04
:101AD00000BF02B0704700BF00000000000000001F
:101AE00008B5FFF7DDFF00BF08BD00BF0000000024
:101AF00008B5FFF7E5FF00BF08BD00BF000000000C
:101B000000B583B0019000910099019804F068F944
:101B10000346184603B05DF804FB00BF0000000058
:101B200000B589B00390029101920093039B069344
:101B30000023079318E00099069800F0D1F905906A
:101B4000059B002B15D1019A079BD31A1A460299BF
:101B5000069800F07DF90490079A049B13440793BC
:101B6000029A049B13440293079A019B9A42E2D380
:101B700000E000BF079B184609B05DF804FB00BFFA
:101B800000B589B00390029101920093039B0693E4
:101B90000023079318E00099069800F071F905906A
:101BA000059B002B15D1019A079BD31A1A4602995F
:101BB000069800F035F90490079A049B13440793A4
:101BC000029A049B13440293079A019B9A42E2D320
:101BD00000E000BF079B184609B05DF804FB00BF9A
:101BE00000B585B00390029101924FF0FF33019A46
:101BF00002990398FFF794FF0346184605B05DF875
:101C000004FB00BF00000000000000000000000016
:101C100000B585B00390029101924FF0FF33019A15
:101C200002990398FFF7ACFF0346184605B05DF82C
:101C300004FB00BF000000000000000000000000E6
:101C400000B585B001900B468DF80330019B0393DE
:101C50004FF0FF31039800F043F90290029B002BF4
:101C600001D0029B06E09DF803301946039802F06C
:101C700047FE0023184605B05DF804FB0000000095
:101C800000B585B00190019B03934FF0FF3103989D
:101C900000F0F6F80290029B002B01D0029B03E0BB
:101CA000039802F015FE0346184605B05DF804FBE4
:101CB00000B587B003900B4601928DF80B30039B63
:101CC00005930199059800F00BF90490049B002BF3
:101CD00001D0049B06E09DF80B301946059802F0F0
:101CE0000FFE0023184607B05DF804FB000000005B
:101CF00000B585B001900091019B03930099039872
:101D000000F0BEF80290029B002B01D0029B03E082
:101D1000039802F0DDFD0346184605B05DF804FBAC
:101D200000B585B00390029101920093009B019A47
:101D300002990398FFF7F4FE0346184605B05DF8D4
:101D400004FB00BF000000000000000000000000D5
:101D500000B585B00390029101920093009B019A17
:101D600002990398FFF70CFF0346184605B05DF88B
:101D700004FB00BF000000000000000000000000A5
:101D800000B587B0039002910192039B0593029BDB
:101D9000002B03D0029B012B03D109E06FF013034A
:101DA00007E0019A0299059802F0CAFD034600E097
:101DB0000023184607B05DF804FB00BF00000000D8
:101DC00008B502F0E5FC00BF08BD00BF0000000040
:101DD00082B00190019B104A1A60019B01221A7186
:101DE000019B00229A60019B0022DA60019B002285
:101DF0001A61019B00225A61019B00229A61019B9A
:101E00000022DA61019B00221A62019B00225A62C1
:101E100000BF02B0704700BF04A00008000000002F
:101E200000B585B0039002910192FFF759FE019A27
:101E30000299039802F0F4FC0190FFF759FE019B10
:101E4000184605B05DF804FB00000000000000002B
:101E500000B585B0039002910192FFF741FE019A0F
:101E60000299039802F004FD0190FFF741FE019BE7
:101E7000184605B05DF804FB0000000000000000FB
:101E800000B585B001900091FFF72AFE019B9B6A87
:101E9000DA6940F20F131340002B03D0FFF728FE3E
:101EA000012318E00023039309E0019B18330099F4
:101EB0001846FFF725FE0390039B002B07D1019BDB
:101EC0009B6ADB6903F02003002BEED000E000BF2B
:101ED000FFF70EFE039B184605B05DF804FB00BF3C
:101EE00000B585B001900091FFF7FAFD0023039340
:101EF00009E0019B203300991846FFF701FE03908B
:101F0000039B002B07D1019B9B6ADB6903F08003D5
:101F1000002BEED000E000BFFFF7EAFD039B184660
:101F200005B05DF804FB00BF0000000000000000E9
:101F300082B04FF0E0235B6800930023019310E030
:101F40000C4A019B20334FF0FF3142F82310094A1D
:101F5000019B60334FF0FF3142F82310019B0133A6
:101F60000193019A009B9A42EAD900BF00BF02B0D8
:101F7000704700BF00E100E000000000000000002A
:101F800082B001900091009BDBB2114A1B01D9B2D3
:101F9000019B134403F540730A461A70019B03F03A
:101FA0001F020B49019B5B09012000FA02F260331A
:101FB00041F82320019B03F01F020549019B5B09A7
:101FC000012000FA02F241F8232000BF02B070475E
:101FD00000E100E000000000000000000000000040
:101FE00082B030230193019B83F3118800BF00BFAF
:101FF00000BF00BF02B070470000000000000000FA
:1020000082B000230193019B83F3118800BF00BFBE
:1020100000BF00BF02B070470000000000000000D9
:1020200008B5FFF7DDFF00BF08BD00BF00000000DE
:1020300008B5FFF7E5FF00BF08BD00BF00000000C6
:1020400000B583B0019000910099019803F040FF22
:1020500000BF03B05DF804FB0000000000000000BA
:1020600008B506210620FFF78BFF00BF08BD00BFA3
:1020700000B583B0144B5B6903F001030193019B2E
:102080000093114A019B5361009B03F00103002B55
:1020900011D00E4B9B68002B05D00C4B9B680B4A54
:1020A000D26810469847FFF7BBFF00210748FFF7AB
:1020B000C7FFFFF7BDFF064B4FF080525A6000BFCD
:1020C00003B05DF804FB00BF0004014008090020D4
:1020D00000ED00E000000000000000000000000033
:1020E00008B506210720FFF74BFF00BF08BD00BF62
:1020F00000B583B0144B5B6903F002030193019BAD
:102100000093114A019B5361009B03F00203002BD3
:1021100011D00E4B9B69002B05D00C4B9B690B4AD1
:10212000D26910469847FFF77BFF00210848FFF768
:1021300087FFFFF77DFF074B4FF080525A6000BFCB
:1021400003B05DF804FB00BF000401400809002053
:102150001809002000ED00E0000000000000000071
:1021600008B506210820FFF70BFF00BF08BD00BF20
:1021700000B583B0144B5B6903F004030193019B2A
:102180000093114A019B5361009B03F00403002B51
:1021900011D00E4B9B6A002B05D00C4B9B6A0B4A4F
:1021A000D26A10469847FFF73BFF00210848FFF727
:1021B00047FFFFF73DFF074B4FF080525A6000BFCB
:1021C00003B05DF804FB00BF0004014008090020D3
:1021D0002809002000ED00E00000000000000000E1
:1021E00008B506210920FFF7CBFE00BF08BD00BFE0
:1021F00000B583B0144B5B6903F008030193019BA6
:102200000093114A019B5361009B03F00803002BCC
:1022100011D00E4B9B6B002B05D00C4B9B6B0B4ACC
:10222000D26B10469847FFF7FBFE00210848FFF7E6
:1022300007FFFFF7FDFE074B4FF080525A6000BFCB
:1022400003B05DF804FB00BF000401400809002052
:102250003809002000ED00E0000000000000000050
:1022600008B506210A20FFF78BFE00BF08BD00BF9E
:1022700000B583B0144B5B6903F010030193019B1D
:102280000093114A019B5361009B03F01003002B44
:1022900011D00E4B9B6C002B05D00C4B9B6C0B4A4A
:1022A000D26C10469847FFF7BBFE00210848FFF7A5
:1022B000C7FEFFF7BDFE074B4FF080525A6000BFCC
:1022C00003B05DF804FB00BF0004014008090020D2
:1022D0004809002000ED00E00000000000000000C0
:1022E00008B506211720FFF74BFE00BF08BD00BF51
:1022F00000B583B0454B5B6903F478730193019B90
:102300000093424A019B5361009B03F02003002B82
:1023100011D03F4B9B6D002B05D03D4B9B6D3C4A34
:10232000D26D10469847FFF77BFE00213948FFF732
:1023300087FEFFF77DFE009B03F04003002B11D0CA
:10234000334B9B6E002B05D0314B9B6E304AD26EC7
:1023500010469847FFF764FE00212F48FFF770FEF4
:10236000FFF766FE009B03F08003002B11D0284B83
:102370009B6F002B05D0264B9B6F254AD26F1046D2
:102380009847FFF74DFE00212448FFF759FEFFF75D
:102390004FFE009B03F48073002B14D01C4BD3F82A
:1023A0008830002B07D01A4BD3F88830184AD2F85F
:1023B0008C2010469847FFF733FE00211848FFF79E
:1023C0003FFEFFF735FE009B03F40073002B14D093
:1023D0000F4BD3F89830002B07D00D4BD3F8983023
:1023E0000B4AD2F89C2010469847FFF719FE0021AF
:1023F0000C48FFF725FEFFF71BFE0B4B4FF08052FA
:102400005A6000BF03B05DF804FB00BF0004014048
:1024100008090020580900206809002078090020D8
:10242000880900209809002000ED00E0000000006D
:1024300008B506212820FFF7A3FD00BF08BD00BF97
:1024400000B583B0564B5B6903F47C430193019B59
:102450000093534A019B5361009B03F48063002B5C
:1024600014D0504BD3F8A830002B07D04D4BD3F8E5
:10247000A8304C4AD2F8AC2010469847FFF7D0FD60
:1024800000214948FFF7DCFDFFF7D2FD009B03F474
:102490000063002B14D0434BD3F8B830002B07D087
:1024A000404BD3F8B8303F4AD2F8BC20104698478A
:1024B000FFF7B6FD00213D48FFF7C2FDFFF7B8FD6D
:1024C000009B03F48053002B14D0364BD3F8C83054
:1024D000002B07D0334BD3F8C830324AD2F8CC2087
:1024E00010469847FFF79CFD00213148FFF7A8FDF3
:1024F000FFF79EFD009B03F40053002B14D0294BE3
:10250000D3F8D830002B07D0264BD3F8D830254A43
:10251000D2F8DC2010469847FFF782FD00212548BD
:10252000FFF78EFDFFF784FD009B03F48043002B33
:1025300014D01C4BD3F8E830002B07D0194BD3F83C
:10254000E830184AD2F8EC2010469847FFF768FDAB
:1025500000211948FFF774FDFFF76AFD009B03F4A3
:102560000043002B14D00F4BD3F8F830002B07D0CA
:102570000C4BD3F8F8300B4AD2F8FC2010469847A1
:10258000FFF74EFD00210D48FFF75AFDFFF750FD04
:102590000B4B4FF080525A6000BF03B05DF804FB54
:1025A0000004014008090020A8090020B809002003
:1025B000C8090020D8090020E8090020F8090020F7
:1025C00000ED00E00000000000000000000000003E
:1025D00000BF704700000000000000000000000085
:1025E00000BF704700000000000000000000000075
:1025F00000BF704700000000000000000000000065
:1026000000BF704700000000000000000000000054
:1026100000BF704700000000000000000000000044
:1026200000BF704700000000000000000000000034
:1026300000BF704700000000000000000000000024
:1026400000BF704700000000000000000000000014
:1026500000BF704700000000000000000000000004
:1026600000BF7047000000000000000000000000F4
:1026700000BF7047000000000000000000000000E4
:1026800008B50C212620FFF77BFC00BF08BD00BF6A
:1026900008B5044801F044FF034B4FF080525A60E4
:1026A00000BF08BD5C0A002000ED00E00000000053
:1026B00000BF7047000000000000000000000000A4
:1026C00000BF704700000000000000000000000094
:1026D00000BF704700000000000000000000000084
:1026E00008B50C215B20FFF74BFC00BF08BD00BF05
:1026F00008B5044802F02CF9034B4FF080525A60A1
:1027000000BF08BDDC0A002000ED00E00000000072
:1027100000BF704700000000000000000000000043
:1027200008B507211C20FFF72BFC00BF08BD00BF28
:1027300008B501F075FB034B4FF080525A6000BFA3
:1027400008BD00BF00ED00E0000000000000000038
:1027500000BF704700000000000000000000000003
:1027600008B507211E20FFF70BFC00BF08BD00BF06
:1027700008B5044801F01CFD034B4FF080525A602D
:1027800000BF08BD3C0A002000ED00E00000000092
:1027900000BF7047000000000000000000000000C3
:1027A00000BF7047000000000000000000000000B3
:1027B00000BF7047000000000000000000000000A3
:1027C00000BF704700000000000000000000000093
:1027D00000BF704700000000000000000000000083
:1027E00008B5FFF73DFCFFF77BFCFFF7B9FCFFF7EF
:1027F000F7FCFFF735FDFFF773FDFFF719FEFFF755
:10280000E7FEFFF7EDFEFFF7F3FEFFF7F9FEFFF738
:10281000FFFEFFF705FFFFF70BFFFFF711FFFFF7C5
:1028200017FFFFF71DFFFFF773FFFFF779FFFFF7B4
:102830008FFFFFF795FFFFF7ABFFFFF7B1FFFFF744
:10284000B7FFFFF7BDFFFFF7C3FFFFF711FFFFF76C
:1028500017FFFFF72DFFFFF733FFFFF739FFFFF7F4
:102860003FFF00BF08BD00BF0000000000000000E7
:1028700000B583B00190019802F01AFA00BF03B0CE
:102880005DF804FB000000000000000000000000F4
:10289000094BD3F89030084A43F01903C2F890303E
:1028A00000BF054BD3F8903003F00203022BF8D1A0
:1028B00000BF00BF704700BF0010024000000000D2
:1028C00000BF704700000000000000000000000092
:1028D000074B1B68064A43F48073136000BF044B28
:1028E0001B6803F48063002BF9D000BF00BF704762
:1028F0000010024000000000000000000000000086
:10290000034B1B68024A23F48073136000BF7047B7
:102910000010024000000000000000000000000065
:1029200008B5FFF7D5FF064B01229A6000BF044BA4
:102930009B6803F00C03042BF9D100BF00BF08BD56
:102940000010024000000000000000000000000035
:10295000094BD3F89830084A43F00103C2F8983085
:1029600000BF054BD3F8983003F00203002BF8D0DA
:1029700000BF00BF704700BF001002400000000011
:10298000074B1B68064A43F48033136000BF044BB7
:102990001B6803F40033002BF9D000BF00BF704761
:1029A00000100240000000000000000000000000D5
:1029B000054B1B6803F00073002B0CBF01230023A1
:1029C000DBB21846704700BF001002400000000054
:1029D00082B0094BD3F890300193019B23F003237D
:1029E0000193019B43F480730193034A019BC2F856
:1029F000903000BF02B0704700100240000000009D
:102A0000094BD3F8903003F44073B3F5807F08D0BE
:102A1000054B4FF48032C3F89020034B0022C3F8DB
:102A2000902000BF704700BF00100240000000006F
:102A300082B00190074A019B136000BF054B1A68E2
:102A4000019B534003F00F03002BF7D100BF00BFE1
:102A500002B07047002002400000000000000000AB
:102A6000204B9B6D1F4A43F0805393651D4B9B6F1A
:102A70001C4A23F0805393671A4B9B6F1A4B4FF4F9
:102A800000429A60184B0022DA60174B00221A624B
:102A9000154B00225A62144B00229A62124B0022FC
:102AA000DA62114B00221A630F4B00225A630E4B5D
:102AB00000229A630C4B0022DA630B4B00221A644B
:102AC000094B00225A64084B00229A64064B0022EC
:102AD000DA64054B00221A65034B00225A6500BFD9
:102AE000704700BF0010024000700040000000006E
:102AF000064B4FF480629A60044B054AC3F8882065
:102B0000024B0022C3F89C2000BF70470010024017
:102B1000550100500000000000000000000000000F
:102B200000B583B00190524B4FF400721A6000BFA1
:102B30004F4B5B6903F4C063002BF9D14D4B9B688D
:102B400003F00C03042B17D0FFF7EAFE4A48FFF707
:102B50006FFF484B0022C3F89820464B63221A604F
:102B600000BF444B1B6803F40033002BF9D1404BEA
:102B70004FF48072C3F88020019BDB6803F480333C
:102B8000002B01D0FFF7FCFE019BDB6903F0010382
:102B9000002B01D0FFF7DCFE364A019B5B69D36056
:102BA000019BDB68334A43F480731360019BDB684D
:102BB00003F08073002B05D0FFF7FAFE0346002BCD
:102BC00000D0F3E700BF2B4B9B6803F00302019B8F
:102BD0001B6923F00303274913438B60019B9B6907
:102BE0001846FFF725FF224A019B1B681360204A05
:102BF000019B5B6853601E4A019B9B68C2F8803052
:102C0000019B1B6803F48043002B07D100BF184BC6
:102C10005B6903F40073002BF9D106E000BF144B8D
:102C20005B6903F40073002BF9D0124B9B6823F00F
:102C30000302019B1B6903F003030E4913438B60DE
:102C400000BF0C4B9A68019B1B699B00534003F02B
:102C50000C03002BF5D1019BDB6803F48073002B80
:102C600001D1FFF74DFE0023184603B05DF804FBC9
:102C70000070004000100240000604000000000048
:102C800008B500F0A5F9FFF753F9FFF7A9FD00BF5C
:102C900008BD00BF000000000000000000000000B0
:102CA00008B53E4B9B6A3D4B4FF0FF329A623B4B5F
:102CB0009B6A3A4B00229A62384B9B6A374BDB6A1D
:102CC000364A63F07F03D362344BDB6A334A03F046
:102CD0007F03D362314BDB6A304B1B6B2F4B4FF0C2
:102CE000FF321A632D4B1B6B2C4B00221A632B4BAC
:102CF0001B6B2A4B9B6B294B4FF0FF329A63274B80
:102D00009B6B264B00229A63244B9B6B234BDB6B04
:102D1000224B4FF0FF32DA63204BDB6B1F4B00225C
:102D2000DA631E4BDB6B1D4B1B6C1C4B4FF0FF32F1
:102D30001A641A4B1B6C194B00221A64174B1B6C3C
:102D4000164B1B6E154A43F001031366134BD3F861
:102D50008030124A23F00103C2F880300F4BD3F8C1
:102D60008030FFF77DFE0E4B1B680D4A43F48073E5
:102D70001360FFF745FEFFF78BFDFFF7A1FDFFF79F
:102D8000B7FE0848FFF7CCFE0346002B02D00648EA
:102D9000FFF76EFDFFF71CFE00BF08BD00100240EC
:102DA000007000402CA000084CA0000800000000AB
:102DB00082B00190034A019B52F82330184602B0BA
:102DC000704700BF00080020000000000000000065
:102DD00008B5044800F0FCF9034B4FF080525A60EC
:102DE00000BF08BD54A0000800ED00E00000000096
:102DF00008B5044800F0ECF9034B4FF080525A60DC
:102E000000BF08BD68A0000800ED00E00000000061
:102E100008B5044800F0DCF9034B4FF080525A60CB
:102E200000BF08BD7CA0000800ED00E0000000002D
:102E300008B5044800F0CCF9034B4FF080525A60BB
:102E400000BF08BD90A0000800ED00E000000000F9
:102E500008B5044800F0BCF9034B4FF080525A60AB
:102E600000BF08BDA4A0000800ED00E000000000C5
:102E700008B5044800F0ACF9034B4FF080525A609B
:102E800000BF08BDB8A0000800ED00E00000000091
:102E900008B5044800F09CF9034B4FF080525A608B
:102EA00000BF08BDCCA0000800ED00E0000000005D
:102EB00008B5044800F08CF9034B4FF080525A607B
:102EC00000BF08BDE0A0000800ED00E00000000029
:102ED00008B5044800F07CF9034B4FF080525A606B
:102EE00000BF08BDF4A0000800ED00E000000000F5
:102EF00008B5044800F06CF9034B4FF080525A605B
:102F000000BF08BD08A1000800ED00E000000000BF
:102F100008B5044800F05CF9034B4FF080525A604A
:102F200000BF08BD1CA1000800ED00E0000000008B
:102F300008B5044800F04CF9034B4FF080525A603A
:102F400000BF08BD30A1000800ED00E00000000057
:102F500008B5044800F03CF9034B4FF080525A602A
:102F600000BF08BD44A1000800ED00E00000000023
:102F700008B5044800F02CF9034B4FF080525A601A
:102F800000BF08BD58A1000800ED00E000000000EF
:102F900008B5044800F01CF9034B4FF080525A600A
:102FA00000BF08BD6CA1000800ED00E000000000BB
:102FB00008B5044800F00CF9034B4FF080525A60FA
:102FC00000BF08BD80A1000800ED00E00000000087
:102FD00082B0154B00221A60134B00225A60002366
:102FE000019313E01149019A13469B0013449B007F
:102FF0000B4404331B6800221A600B4A019B013307
:10300000002142F83310019B01330193019B0F2BE8
:10301000E8DD074B4FF0FF325A60064B4FF0FF32AE
:103020005A6000BF02B070478008002054A000081A
:103030000000024000040240000000000000000008
:1030400000B58BB00390029101920093039B0F2B6C
:1030500004D8039B0893039B079319E0039B102B51
:1030600004D1002308930F23079311E0039B112B36
:1030700004D1002308930723079309E0039B122B35
:1030800004D1082308930F23079301E0002395E060
:10309000089B09938CE00122099B02FA03F3069333
:1030A000484B1A68069B1340002B7ED1099A1346A1
:1030B0009B0013449B00444A134405934149099BD8
:1030C0000133019A41F833203E4A099B0133DB006A
:1030D0001344009A5A603B4B1A68069B1343394AC3
:1030E0001360069BDBB2002B0DD0384B9B6C374A2C
:1030F00043F001039364354B9B6E344A43F0010364
:103100009366324B9B6E069B03F47F43002B0DD0DE
:103110002E4B9B6C2D4A43F0020393642B4B9B6E0A
:103120002A4A43F002039366284B9B6E254B1B688B
:10313000002B0DD0254B9B6C244A43F00403936471
:10314000224B9B6E214A43F0040393661F4B9B6EF8
:10315000019B002B12D01B4B5A68059B9B681340A8
:10316000002B05D1059B9B7C02991846FEF708FFB2
:10317000144B5A68069B1343124A5360059B5B68C5
:103180001A68059B5B6822F00F021A60059B1B7C86
:103190001A460E2303FA02F2059B1B685A60059B30
:1031A0005B6800221A60059B08E0099B01330993C4
:1031B000099A079B9A427FF66EAF002318460BB020
:1031C0005DF804FB8008002054A0000800100240B5
:1031D00000B585B00190019B5B7C0393019B1B684C
:1031E0001B68019A127CD34003F00E030293019BEB
:1031F0005B681A68029B1340002B1CD0019B1B7C50
:103200001946019B1B68029A8A405A600C4A039B2C
:10321000013352F83330002B0DD0094A039B0133A0
:1032200052F833200649039B0133DB000B445B68F3
:1032300002991846904700BF05B05DF804FB00BF37
:1032400080080020000000000000000000000000D6
:1032500082B001900091019BDB68009A1A6000BF68
:1032600002B07047000000000000000000000000F5
:1032700082B00190019B019A1A60019B019A5A60E9
:1032800000BF02B0704700BF000000000000000057
:1032900000B583B00190019B1846FFF7E9FF00BF1E
:1032A00003B05DF804FB00BF000000000000000058
:1032B00000B583B001900198FFF7EAFF00BF03B0AB
:1032C0005DF804FB000000000000000000000000AA
:1032D00000B583B00023019317E0019B1B010F4A47
:1032E00013441846FFF7E4FF0C4A019B1B011344EB
:1032F000083300221A60094A019B1B0113440C3356
:1033000000221A60019B01330193019B0F2BE4D92A
:1033100000BF00BF03B05DF804FB00BF0809002038
:103320008EB0039002910192019B03F003030D9371
:10333000019B9B0803F001030C93019BDB0803F046
:1033400003030B93019B5B0903F003030A93019BA7
:10335000DB0903F00F03089300230993029B03F09A
:103360000103002B79D0099B03F007039B00089A07
:1033700002FA03F307930122099B02FA03F306936F
:10338000099B5B00032202FA03F30593099B03F0F8
:1033900007039B000F2202FA03F30493039B5A686E
:1033A000069BDB431A400C9B1A43039B5A60039B0A
:1033B0009A68059BDB431A400B9B1A43039B9A6058
:1033C000039BDA68059BDB431A400A9B1A43039B65
:1033D000DA60019B03F00303022B1FD1099B072B2B
:1033E00009D8039B1A6A049BDB431A40079B1A43C4
:1033F000039B1A6208E0039B5A6A049BDB431A4052
:10340000079B1A43039B5A62039B1A68059BDB4385
:103410001A400D9B1A43039B1A601EE0039B1A6817
:10342000059BDB431A400D9B1A43039B1A60099BC3
:10343000072B09D8039B1A6A049BDB431A40079B9E
:103440001A43039B1A6208E0039B5A6A049BDB43FE
:103450001A40079B1A43039B5A62029B5B08029324
:10346000029B002B0FD00C9B5B000C930B9B9B00D3
:103470000B930A9B9B000A930D9B9B000D93099B4A
:10348000013309936AE700BF0EB0704700000000E7
:1034900082B001900091019A009B1344184602B03B
:1034A000704700BF000000000000000000000000A6
:1034B00084B0039002910192039A029BD21A01995F
:1034C000029BCB1A9A4234BF01230023DBB2184679
:1034D00004B0704700000000000000000000000081
:1034E00008B5FDF78DFC0346184608BD0000000036
:1034F00082B030230193019B83F3118800BF00BF8A
:1035000000BF02B0704700BF0000000000000000D4
:1035100082B000230193019B83F3118800BF00BF99
:1035200000BF02B0704700BF0000000000000000B4
:1035300082B030230193019B83F3118800BF00BF49
:1035400000BF00BF02B07047000000000000000094
:1035500082B000230193019B83F3118800BF00BF59
:1035600000BF00BF02B07047000000000000000074
:1035700008B5FFF7B5FF0346184608BD0000000078
:1035800008B5FFF7B5FF00BF08BD00BF0000000091
:1035900008B5FFF7BDFF00BF08BD00BF0000000079
:1035A00008B5FFF7C5FF00BF08BD00BF0000000061
:1035B00008B5FFF7CDFF00BF08BD00BF0000000049
:1035C00008B5FFF7D5FF0346184608BD0000000008
:1035D00000B583B00190009100990198FFF758FF62
:1035E0000346184603B05DF804FB00BF000000006E
:1035F00000B585B0039002910192019A0299039857
:10360000FFF756FF0346184605B05DF804FB00BF00
:1036100000B583B0019000910099019802F0E0FBA1
:103620000346184603B05DF804FB00BF000000002D
:1036300000B583B0019000910099019802F0F8FB69
:1036400000BF03B05DF804FB0000000000000000B4
:1036500084B001900B46ADF80230019B1B6B0393C5
:10366000019B5B689B6803F40063002B05D1BDF8E8
:1036700002305A00039B5A6003E0BDF80220039B0E
:103680005A6000BF04B07047000000000000000056
:1036900086B00190019B1B6B0393019B9B6A5B6847
:1036A0005B680493049BFF2B05D9FF2304934FF021
:1036B0008073059301E000230593039B5B6823F06F
:1036C000FF7323F48033019A526892681A43049B73
:1036D0001B041A43059B134343F48062039B5A6007
:1036E00000BF06B0704700BF0000000000000000EF
:1036F00086B00190019B1B6B0393019BDB6A5B68A7
:103700005B680493049BFF2B05D9FF2304934FF0C0
:103710008073059301E000230593039B5B6823F00E
:10372000FF7323F48033019A526892681A43049B12
:103730001B041A43059B1A43039B5A6000BF06B043
:10374000704700BF00000000000000000000000003
:1037500000B585B001900091019B1B6B0393009B0A
:1037600003F01003002B47D0019BDB6A5B681A68EB
:10377000019BDB6A5B6822F00F021A60019BDB6A27
:103780001B7C1A460E2303FA02F2019BDB6A1B68BC
:103790005A60019B9B6A5B681A68019B9B6A5B6825
:1037A00022F00F021A60019B9B6A1B7C1A460E23B3
:1037B00003FA02F2019B9B6A1B685A60019B9B689B
:1037C00043F00402019B9A60039B5B6843F48042D0
:1037D000039B5A60039B1B6823F04602039B1A60FD
:1037E000FFF7DEFE019B1C336FF001011846FFF767
:1037F0001FFFFFF7DDFE76E0009B03F08003002B48
:103800000BD0019B1B78032B03D10198FFF770FFAE
:1038100069E00198FFF73CFF65E0009B03F040037F
:10382000002B60D0019B1B78032B31D1019BDB6AFD
:103830005B681A68019BDB6A5B6822F00F021A6002
:10384000019BDB6A1B7C1A460E2303FA02F2019BE2
:10385000DB6A1B685A60019B9B6A5B685B68002B94
:103860002BD00198FFF714FF019B9B6A5B681A68D5
:10387000019B9B6A5B6842F001021A60039B5B68D4
:1038800043F40052039B5A60019B04221A702AE001
:10389000019B9B6A5B681A68019B9B6A5B6822F0CC
:1038A0000F021A60019B9B6A1B7C1A460E2303FAC7
:1038B00002F2019B9B6A1B685A60039B5B6843F49E
:1038C0008042039B5A60039B1B6823F04002039BCA
:1038D0001A60FFF765FE019B1C3300211846FFF7B5
:1038E000A7FEFFF765FE05B05DF804FB00000000D1
:1038F00000B583B001900091019BDB6A5B681A6898
:10390000019BDB6A5B6822F00F021A60019BDB6A95
:103910001B7C1A460E2303FA02F2019BDB6A1B682A
:103920005A60019B9B6A5B681A68019B9B6A5B6893
:1039300022F00F021A60019B9B6A1B7C1A460E2321
:1039400003FA02F2019B9B6A1B685A60009B03F416
:103950008073002B05D0019B9B6843F00102019B03
:103960009A60009B03F40073002B05D0019B9B68B9
:1039700043F00202019B9A60009B03F48063002BDA
:1039800005D0019B9B6843F00802019B9A60009B55
:1039900003F48053002B05D0019B9B6843F0200269
:1039A000019B9A60019B9B68002B0AD0FFF7F8FDF2
:1039B000019B1C336FF001011846FFF739FEFFF73A
:1039C000F7FD00BF03B05DF804FB00BF000000007E
:1039D00000B583B00A4B1B6B9B690193084B1B6BB3
:1039E000019A02F0FE02DA6101990548FFF7B0FE84
:1039F000044B4FF080525A6000BF03B05DF804FBE7
:103A0000080A002000ED00E00000000000000000B7
:103A100000B583B00A4B1B6B9B690193084B1B6B72
:103A2000019A02F47C52DA6101990548FFF760FFC0
:103A3000044B4FF080525A6000BF03B05DF804FBA6
:103A4000080A002000ED00E0000000000000000077
:103A500008B50848FDF764FD064B0022DA61054B06
:103A6000054A1A63034B00229A62024B0022DA6273
:103A700000BF08BD080A00200054004000000000FC
:103A800000B585B00190019B1B6B0393039B1B68E2
:103A900023F00102039B1A60019B1B78012B57D175
:103AA000019B9A225A62019B8A221A62019B3B4A1D
:103AB00093424DD13A4B9B6B394A43F400139363C5
:103AC000374B9B6B364A23F400139363344B9B6B49
:103AD000334B9B6D324A43F400139365304B9B6F1D
:103AE0002F4A43F4001393672D4B9B6F019B0022D9
:103AF00005211020FFF7A4FA0246019B9A62019B60
:103B0000002205211020FFF79BFA0246019BDA6292
:103B1000019B1B6A43F44052019B1A62019B5B6A42
:103B200043F44052019B5A62019B9B6A1021184644
:103B3000FFF78EFB019BDB6A11211846FFF788FB1C
:103B400005211F20FEF71CFA05212020FEF718FA98
:103B5000039B03F12402019B9B6A5B689A60039BB1
:103B600003F12802019BDB6A5B689A60019B5B683A
:103B70005B6843F4404343F09003039A1360019B56
:103B80005B681A68039B1A61039B1B6843F0010280
:103B9000039B1A6000BF05B05DF804FB080A002013
:103BA00000100240000000000000000000000000C3
:103BB00000B589B00390019200930B46ADF80A302E
:103BC000039B1B6B0793039B00229A60FFF7E0FCAB
:103BD000039BDB6A5B68039A526A1A60039BDB6A89
:103BE0005B68019ADA60039BDB6A5B68009A5A6043
:103BF000039B9B6A5B68039A126A1A60039B9B6A29
:103C00005B680A9ADA60039B9B6A5B680B9A5A604E
:103C1000FFF7D6FC06904FF4FA710698FFF7D8FC30
:103C20000590FFF7ADFC079B9B6903F40043002B55
:103C300013D0FFF7C5FC0346059A06991846FFF70F
:103C4000D7FC034683F00103DBB2002B02D04FF018
:103C5000FF335EE0FFF79CFCE3E700BFBDF80A30EE
:103C600019460398FFF7F4FC0398FFF741FD039B07
:103C7000DB6A5B681A68039BDB6A5B6842F00102DF
:103C80001A60079B1B6843F04002079B1A60079B62
:103C90005B6843F40052079B5A60039B1C330C99EA
:103CA0001846FFF7B5FC0490049BB3F1FF3F2FD1FA
:103CB000079B5B6843F48042079B5A60039B9B6AA7
:103CC0005B681A68039B9B6A5B6822F00F021A60AC
:103CD000039B9B6A1B7C1A460E2303FA02F2039B8A
:103CE0009B6A1B685A60039BDB6A5B681A68039BCC
:103CF000DB6A5B6822F00F021A60039BDB6A1B7CA5
:103D00001A460E2303FA02F2039BDB6A1B685A6011
:103D1000049B184609B05DF804FB00BF00000000DA
:103D200082B030230193019B83F3118800BF00BF51
:103D300000BF00BF02B0704700000000000000009C
:103D400082B000230193019B83F3118800BF00BF61
:103D500000BF00BF02B0704700000000000000007C
:103D600008B5FFF7DDFF00BF08BD00BF0000000081
:103D700008B5FFF7E5FF00BF08BD00BF0000000069
:103D800008B500F0ADFF00BF08BD00BF0000000097
:103D900008B51F4B9B6D1E4A43F0010393651C4BF6
:103DA0009B6F1B4A43F001039367194B9B6F194BA1
:103DB0009B68184A43F0010393600620FEF7F8FF62
:103DC0000346154AA2FB03235B0B4FF08042013BE5
:103DD00093624FF080434FF0FF32DA624FF080433E
:103DE00000229A614FF0804300225A634FF08043D3
:103DF0000022DA604FF0804300225A604FF0804387
:103E000001225A614FF0804301221A6000BF08BDB1
:103E100000100240002004E05917B7D10000000054
:103E200000B583B04FF080430193019B1B69009361
:103E3000019BDB68DBB2009A13400093009BDA43DE
:103E4000019B1A61009B03F00203002B05D0FFF7D2
:103E500087FFFFF795FFFFF78BFF00BF03B05DF80B
:103E600004FB00BF00000000000000000000000094
:103E700008B50748FDF7F4FB054B04221A74044B00
:103E8000044ADA61024B00221A7600BF08BD00BF67
:103E90003C0A002000080040000000000000000074
:103EA00000B585B00190019B1B78012B34D1019B9B
:103EB000944A934221D1944B9B6D934A43F004035F
:103EC0009365914B9B6F904A43F0040393678E4B2D
:103ED0009B6F8D4B9B6B8C4A43F0040393638A4B1F
:103EE0009B6B894A23F004039363874B9B6B0620EB
:103EF000FEF75EFF0246019B5A61019BDB6946F6B5
:103F000068029A61019BDB6946F66802DA61019BEF
:103F1000DB697E4A1A6523E0019BDB6900221A6097
:103F2000019BDB6900225A63019BDB6900229A63D3
:103F3000019BDB690022DA63019BDB6900221A64C2
:103F4000019B1B7C042B07D9019BDB6900229A642F
:103F5000019BDB690022DA64019BDB6900225A6263
:103F6000019B5A69019B5B681B68B2FBF3F3013B41
:103F70000293019BDB69029A9A62019B9A68019BFA
:103F8000DB69013ADA62019B5A68019BDB69D26BFB
:103F90005A6000230393019B5B68DB6803F00F0307
:103FA000012B05D0022B07D1039B43F0020303939F
:103FB000039B43F001030393019B5B685B6903F080
:103FC0000F03012B05D0022B07D1039B43F02003E5
:103FD0000393039B43F010030393019B5B68DB692E
:103FE00003F00F03012B05D0022B07D1039B43F4F1
:103FF00000730393039B43F480730393019B5B68FB
:104000005B6A03F00F03012B05D0022B07D1039B42
:1040100043F400530393039B43F480530393019BA6
:104020001B7E002B44D0019B5B68DB6803F0F00330
:10403000102B05D0202B07D1039B43F008030393DB
:10404000039B43F004030393019B5B685B6903F0EC
:10405000F003102B05D0202B07D1039B43F08003E6
:104060000393039B43F040030393019B5B68DB696D
:1040700003F0F003102B05D0202B07D1039B43F452
:1040800000630393039B43F480630393019B5B688A
:104090005B6A03F0F003102B05D0202B09D1039BA2
:1040A00043F400430393039B43F48043039300E0F2
:1040B00000BF019BDB69039A1A62019BDB69012245
:1040C0005A61019BDB6900221A61019B5B685A6C93
:1040D000019BDB6922F0FF02DA60019B1B7E002B53
:1040E00007D0019B5B681A6C019BDB6942F40042BC
:1040F0005A64019BDB6985221A6000BF05B05DF838
:1041000004FB00BF3C0A0020001002406868010167
:1041100084B003900B4601928DF80B309DF80B3064
:10412000032B09D8039BDA699DF80B300C339B00F5
:104130001344019A5A6008E0039BDB699DF80B2049
:10414000043A1232019943F8221000BF04B07047BC
:1041500082B001900B468DF803309DF80330032B9D
:1041600017D8019BDA699DF803300C339B00134488
:1041700000225A60019BDB69DA689DF80330022156
:1041800001FA03F3DB431946019BDB690A40DA605D
:1041900008E0019BDB699DF80320043A12320021FC
:1041A00043F8221000BF02B0704700BF00000000BB
:1041B00000B585B00190019BDB691B690393019BEE
:1041C000DB69DB68DBB2039A13400393019BDB6975
:1041D000039AD2431A61039B03F00203002B09D018
:1041E000019B5B681B69002B04D0019B5B681B690A
:1041F00001989847039B03F00403002B09D0019B0F
:104200005B689B69002B04D0019B5B689B690198EC
:104210009847039B03F00803002B09D0019B5B68C0
:104220001B6A002B04D0019B5B681B6A01989847AE
:10423000039B03F01003002B09D0019B5B689B6A72
:10424000002B04D0019B5B689B6A01989847039BF5
:1042500003F00103002B09D0019B5B689B68002BD6
:1042600004D0019B5B689B680198984700BF05B02C
:104270005DF804FB000000000000000000000000EA
:1042800082B030230193019B83F3118800BF00BFEC
:1042900000BF00BF02B07047000000000000000037
:1042A00082B000230193019B83F3118800BF00BFFC
:1042B00000BF00BF02B07047000000000000000017
:1042C00008B5FFF7DDFF00BF08BD00BF000000001C
:1042D00008B5FFF7E5FF00BF08BD00BF0000000004
:1042E00000B583B0019000910099019801F050FF52
:1042F00000BF03B05DF804FB0000000000000000F8
:1043000086B001900091019B5B6D0493019B9B6DB6
:104310000393009B1B685A08039B1A44009B1B686D
:10432000B2FBF3F30593009B5B6803F40043002B9F
:1043300008D0059B23F007035A00059B03F00703F1
:1043400013430593049B059ADA60009B9B6843F036
:104350004002049B5A60009BDB6843F00102049B0F
:104360009A60009B5B6843F4967343F00103049AE0
:104370001360049B4FF0FF321A62009B5B6803F4EA
:104380008063002B18D0009B5B6803F01023002B88
:1043900003D0B3F1805F05D009E0019B7F2283F851
:1043A0005C200EE0019B3F2283F85C2009E0019B2A
:1043B000FF2283F85C2004E0019BFF2283F85C204D
:1043C000FFE700BF06B070470000000000000000DB
:1043D00000B585B00190009100230393009B03F08A
:1043E0000803002B03D0039B43F480730393009BCB
:1043F00003F00103002B03D0039B43F0200303933E
:10440000009B03F00203002B03D0039B43F0400307
:104410000393009B03F00403002B03D0039B43F0A2
:1044200080030393FFF74CFF019B04330399184665
:10443000FFF756FFFFF74CFF00BF05B05DF804FB28
:1044400082B00190044B1B68034A43F0C003136021
:1044500000BF02B0704700BF0044004000000000F1
:1044600000B583B00F48FDF7BBFA0E4B0093002355
:1044700010220D490D48FCF733FE0A4B00930C4BFC
:1044800010220C490C48FCF713FF064B0B4A5A65E7
:104490000020FEF78DFC0346024A936500BF03B07F
:1044A0005DF804FB5C0A0020BC0A0020680A0020BA
:1044B00041440008CC0A00208C0A0020004400403F
:1044C00000B583B001900091009B002B01D1104BEF
:1044D0000093019B1B7A012B11D1019B0D4A934242
:1044E0000DD10D4B9B6D0C4A43F4003393650A4B81
:1044F0009B6F094A43F400339367074B9B6F009906
:104500000198FFF7FDFE00BF03B05DF804FB00BF9C
:1045100094A100085C0A0020001002400000000086
:1045200000B587B00190019B5B6D0493049B1B68F1
:104530000393049BDB690593049B059A1A62059B10
:1045400003F00F03002B03D005990198FFF740FFFC
:10455000059B03F48073002B1ED0FFF7B1FE019B77
:1045600004334FF480611846FFF7BAFEFFF7B0FE40
:1045700012E0FFF7A5FE049B5B6ADAB2019B93F899
:104580005C301340DBB219460198FDF761FAFFF782
:104590009FFE049BDB690593059B03F02003002B22
:1045A000E7D1039B03F08003002B26D020E0FFF728
:1045B00087FE019B30331846FCF7EAFE0290029B0F
:1045C000002B0DDA019B043308211846FFF788FE03
:1045D000039B23F08002049B1A60FFF779FE0CE036
:1045E000029A049B9A62FFF773FE049BDB690593B2
:1045F000059B03F08003002BD9D1039B03F04003FC
:10460000002B25D0059B03F04003002B20D0FFF7A3
:1046100057FE019B5A6C019B9B6C9A4205D1019BF2
:104620009B6B002B01D0012300E0002303F001036A
:10463000DBB2002B0AD0019B043310211846FFF790
:104640004FFE039B23F04002049B1A60FFF740FEDD
:1046500000BF07B05DF804FB000000000000000090
:1046600082B030230193019B83F3118800BF00BF08
:1046700000BF00BF02B07047000000000000000053
:1046800082B000230193019B83F3118800BF00BF18
:1046900000BF00BF02B07047000000000000000033
:1046A00008B5FFF7DDFF00BF08BD00BF0000000038
:1046B00008B5FFF7E5FF00BF08BD00BF0000000020
:1046C00000B583B0019000910099019801F0B0FB12
:1046D00000BF03B05DF804FB000000000000000014
:1046E00082B00190019BDB6803F00403002B07D02C
:1046F000019B9B6A9A68019B9B6A42F080529A6078
:10470000019BDB6803F40073002B07D0019B9B6ABD
:104710001A68019B9B6A42F010021A6000BF02B047
:10472000704700BF00000000000000000000000013
:1047300082B00190019BDB6803F00803002B07D0D7
:10474000019B9B6A9A68019B9B6A42F400029A60F3
:1047500000BF02B0704700BF000000000000000072
:1047600082B00190019BDB6803F01003002B07D09F
:10477000019B9B6A1A68019B9B6A42F040021A6087
:1047800000BF02B0704700BF000000000000000042
:1047900008B50748FDF71CFB054B064A9A62052041
:1047A000FEF706FB0346024AD36200BF08BD00BF06
:1047B000DC0A002000800040000000000000000033
:1047C00084B00190019B9B6ADB69C3F308030393E8
:1047D000039B5B099B0003F00402039BDB09DB00E6
:1047E00003F008031A43039B9B091B0103F010030A
:1047F0001A43039B5B0103F478731A43039B1B0A60
:104800009B0203F4806313430293029B184604B097
:10481000704700BF00000000000000000000000022
:1048200000B587B003900291019200230593039B8A
:104830009B6ADB6903F02003002B03D10398FFF789
:104840004FFF10E0059A019B9A420BD2039B9B6A93
:10485000596A029B5A1C0292CAB21A70059B013314
:104860000593E4E700BF059B184607B05DF804FB1D
:1048700000B587B003900291019200230593039B3A
:104880009B6ADB6903F08003002B03D10398FFF7D9
:104890004FFF0FE0059A019B9A420AD2029B5A1CD5
:1048A00002921A78039B9B6A9A62059B01330593D7
:1048B000E5E700BF0398FFF753FF059B184607B0D5
:1048C0005DF804FB00000000000000000000000094
:1048D00000B585B00190019B9B6A5B6A0393019BC5
:1048E0009B6ADB6903F02003002B02D10198FFF7DC
:1048F000F7FE039B184605B05DF804FB00000000BE
:1049000000B583B001900091019B9B6A009A9A6266
:10491000019B9B6ADB6903F08003002B02D10198A5
:10492000FFF706FF0198FFF71BFF00BF03B05DF81C
:1049300004FB00BF000000000000000000000000B9
:1049400084B00390029101920023184604B070478E
:1049500000B587B00190019B9B6A0393039B1B6882
:104960000593039B9B6804930198FFF729FF024678
:10497000019BDB6813400293029B002B00F08680B2
:10498000029B03F4BC63002B23D0039B10221A620A
:10499000049B23F0805323F001030493059B23F42D
:1049A00088730593039B5B6823F04002039B5A6066
:1049B000FFF776FE019B183301211846FFF780FEB2
:1049C000019B1C3301211846FFF77AFEFFF770FEAA
:1049D00028E0029B03F40073002B0DD0059B23F00D
:1049E00010030593FFF75CFE019B1C330021184662
:1049F000FFF766FEFFF75CFE029B03F00403002B4B
:104A000010D0039B10221A62049B23F0805304935E
:104A1000FFF746FE019B183300211846FFF750FEB2
:104A2000FFF746FE029B03F00803002B0DD0049B0A
:104A300023F400030493FFF733FE019B203300218E
:104A40001846FFF73DFEFFF733FE029B03F010030D
:104A5000002B0DD0059B23F040030593FFF720FEAC
:104A6000019B243300211846FFF72AFEFFF720FEA2
:104A7000039B059A1A60039B049A9A60019B1B6929
:104A8000002B03D0019B1B690198984700BF07B01A
:104A90005DF804FB000000000000000000000000C2
:104AA00082B001900091009B5A68019B5A60009B64
:104AB0009A68019B9A60009BDA68019BDA60009B10
:104AC0001A69019B5A61009B5A69019B1A62009BFB
:104AD0009A69019B5A62009B1A68019B1A6000BF89
:104AE00002B070470000000000000000000000005D
:104AF00008B51D4BDB6A1C4A43F07F03D3621A4B97
:104B0000DB6A194A23F07F03D362174BDB6A164B2B
:104B1000DB6C154A43F07F03D364134BDB6E124A00
:104B200043F07F03D366104BDB6E10494FF090408B
:104B3000FFF7B6FF0E490F48FFF7B2FF0E490F48C7
:104B4000FFF7AEFF0E490F48FFF7AAFF0E490F48C7
:104B5000FFF7A6FF0E490F48FFF7A2FF0E490F48C7
:104B6000FFF79EFF00BF08BD00100240A4A100088F
:104B7000C0A1000800040048DCA1000800080048AB
:104B8000F8A10008000C004814A20008001000481A
:104B900030A20008001400484CA200080018004889
:104BA00008B5FFF7A5FFFEF77BF800BF08BD00BF03
:104BB00000BF70470000000000000000000000007F
:104BC00000B58BB00190019B00221A6002AB184621
:104BD00001F0CEF90423099302AB184601F0E8F97D
:104BE00002AB184601F0F4F9099B013B0993099BBC
:104BF000002BF1D1029A019B1A6000BF0BB05DF847
:104C000004FB00BF000000000000000000000000E6
:104C100082B000230193019B83F3118800BF00BF82
:104C200000BF02B0704700BF00000000000000009D
:104C300008B501F045FB01F093FB01F0E9FB00BF73
:104C400008BD00BF000000000000000000000000E0
:104C500000B583B0114B01221A700023019308E0C4
:104C60000E4A019B9B00134400225A60019B0133B2
:104C70000193019B002BF3D00948FFF7A1FFFFF739
:104C8000D7FF0849084800F03BFE044B02221A7087
:104C9000FFF7BEFF00BF03B05DF804FB0C0B002064
:104CA000140B00206CA20008180B0020000000006C
:104CB00082B0019072B600BF00BF044A019BC2F8E7
:104CC000AC30034B03221A70FEE700BF180B002024
:104CD0000C0B00200000000000000000000000009D
:104CE00008B500F095FA00BF08BD00BF0000000045
:104CF00082B00190044B5A6B019B1343024A5363E9
:104D000000BF02B0704700BF180B00200000000079
:104D100082B001900091019A009B1344184602B0A2
:104D2000704700BF0000000000000000000000000D
:104D300082B001900091009A019BD31A184602B0EC
:104D4000704700BF000000000000000000000000ED
:104D500082B00190019B1B68019A9A420CBF01230B
:104D60000023DBB2184602B0704700BF000000000D
:104D700082B001900091019B1B68009A9A420CBF7F
:104D800001230023DBB2184602B070470000000088
:104D900084B0039002910192029B019A9A60029B57
:104DA000039A5A60029B5B681A68029B1A60029B16
:104DB0001B68029A5A60039B029A1A6000BF04B0F3
:104DC000704700BF0000000000000000000000006D
:104DD00084B0039002910192029B019A9A60029B17
:104DE000039A1A60029B1B685A68029B5A60029BD6
:104DF0005B68029A1A60039B029A5A6000BF04B073
:104E0000704700BF0000000000000000000000002C
:104E100000B587B0039002910192039B1B68059334
:104E200007E0059B9B68019AD31A0193059B1B68B9
:104E30000593059B9B68019A9A428CBF012300232E
:104E4000DBB2002BEDD1019A02990598FFF7C0FF64
:104E5000059B9A68019BD21A059B9A60039B4FF0B1
:104E6000FF329A6000BF07B05DF804FB000000004D
:104E700084B00190019B1B680393039B1A68019BFC
:104E80001A60019B1B68019A5A60039B184604B084
:104E9000704700BF0000000000000000000000009C
:104EA00082B00190019B5B68019A12681A60019BB5
:104EB0001B68019A52685A60019B184602B07047FD
:104EC00000B583B001900198FBF7A2FF00BF03B0CB
:104ED0005DF804FB0000000000000000000000007E
:104EE00008B5FBF7A5FF00BF08BD00BF000000002C
:104EF00000B583B001900198FBF7A2FF00BF03B09B
:104F00005DF804FB0000000000000000000000004D
:104F100008B5FBF775FF0346184608BD0000000002
:104F200082B030230193019B83F3118800BF00BF3F
:104F300000BF00BF02B0704700000000000000008A
:104F400082B000230193019B83F3118800BF00BF4F
:104F500000BF00BF02B0704700000000000000006A
:104F600008B5FFF7D5FF0346184608BD000000004E
:104F700000B587B00190009102230593009A059B2C
:104F80009A4201D2059B009300990198FFF7C0FE59
:104F900003461846FFF7ACFFFFF7E2FF04900499C1
:104FA0000198FFF7C5FE0390039A009B9A4234BF15
:104FB00001230023DBB2002B07D1059B01330593AE
:104FC000049B0193059B0093DEE700BF059B022B2A
:104FD00002D90120FFF78CFE00BF07B05DF804FB8B
:104FE00000B587B00390029101920093039B019A50
:104FF000DA60039B0299009A1846FFF7C9FE022364
:105000000593009A059B9A4201D2059B0093039B4E
:10501000DB6800991846FFF77BFE03461846FFF74A
:105020004FFFFFF79DFF049004990198FFF780FE62
:105030000246009B93428CBF01230023DBB2002B6E
:105040000FD1059B0133059305990198FFF760FE89
:1050500003461846FFF74CFF049B0193059B009302
:10506000DFE700BF059B022B02D90120FFF740FEBE
:1050700000BF07B05DF804FB000000000000000066
:1050800000B589B0039002910192FFF769FF069085
:10509000039B1846FFF75CFE0346002B06D0019BDE
:1050A000069A02990398FFF79BFF20E0039BDB68B9
:1050B00006991846FFF73CFE0590059A019B13449C
:1050C0000793079A059B9A4201D2019B0793039B82
:1050D0001B689B68079A9A4203D201990698FFF7CA
:1050E00047FF039B0299079A1846FFF791FE09B004
:1050F0005DF804FB0000000000000000000000005C
:1051000000B587B00390029101920093094B05937B
:10511000039B009A1A61039B019ADA60039B0022A9
:105120005A61029A03990598FFF7AAFF00BF07B0DA
:105130005DF804FB280B00200000000000000000C8
:1051400000B587B001902E4B0593059B019A11463F
:105150001846FFF70DFE034683F00103DBB2002B78
:1051600014D0019B1846FFF79BFE019B1B689968B2
:10517000019B9A68019B1B680A449A60019B00226C
:105180001A60059B4FF0FF329A6035E0059B184688
:10519000FFF76EFE019B00221A60059B1846FFF781
:1051A000D7FD0346002B02D0FFF79AFE24E0059BB3
:1051B0001B689968019B9A68059B1B680A449A6062
:1051C000FFF7CEFE0490059BDB6804991846FFF7B5
:1051D000AFFD0390059B1B689B68039A9A420AD215
:1051E000059B1B689A68039BD31A02930299049843
:1051F000FFF7BEFE00E000BF07B05DF804FB00BF94
:10520000280B00200000000000000000000000004B
:1052100000B589B04C4B0593059B1B680493FFF7C1
:105220009FFE0390059BDB6803991846FFF780FDFE
:105230000290049B9B68029A9A4266D3059BDA68A7
:10524000049B9B6819461046FFF762FD0190059B81
:10525000019ADA60049B1846FFF722FE049B0022A5
:105260001A60059B1846FFF773FD0346002B01D01B
:10527000FFF736FEFFF764FE049BDB68049A1269B1
:10528000114604989847FFF74BFE049B5B69002B7F
:1052900014BF01230023DBB2002BBDD0FFF760FE5B
:1052A000039003990198FFF743FD0290049B5B690B
:1052B000029A9A4205D90220FFF71AFD00230693AD
:1052C00004E0049B5A69029BD31A0693059B184677
:1052D000FFF73EFD0346002B06D0069B039A049978
:1052E0000598FFF77DFE2CE0029A069B1344079376
:1052F000079A029B9A4201D2069B0793059B049949
:10530000079A1846FFF784FD86E700BF059B1846FD
:10531000FFF71EFD0346002B12D1059BDA68029BA6
:105320001A44059BDA60049B9A68029BD21A049B7C
:105330009A60049B9B6819460398FFF719FE00E0EA
:1053400000BF09B05DF804FB280B0020000000003E
:1053500082B00190019B5B68019A12681A60019B00
:105360001B68019A52685A60019B184602B0704748
:1053700084B00190019B1B680393039B1A68019BF7
:105380001A60019B1B68019A5A60039B184604B07F
:10539000704700BF00000000000000000000000097
:1053A00082B001900091019B1B680193019B9A6858
:1053B000009B9B689A422CBF01230023DBB2002B89
:1053C000F1D1009B019A1A60019B5A68009B5A60B8
:1053D000009B5B68009A1A60019B009A5A60009BD0
:1053E000184602B0704700BF000000000000000037
:1053F00082B001900091019B1B680193019B9A6808
:10540000009B9B689A428CBF01230023DBB2002BD8
:10541000F1D1009B019A1A60019B5A68009B5A6067
:10542000009B5B68009A1A60019B009A5A60009B7F
:10543000184602B0704700BF0000000000000000E6
:1054400082B030230193019B83F3118800BF00BF1A
:1054500000BF00BF02B07047000000000000000065
:1054600082B000230193019B83F3118800BF00BF2A
:1054700000BF00BF02B07047000000000000000045
:1054800082B00190019B1B68002B14BF01230023F5
:10549000DBB2184602B070470000000000000000B8
:1054A00082B00190019B9B685A1C019B9A6000BFCF
:1054B00002B0704700000000000000000000000083
:1054C00000B583B00190019B002283F84C20019B22
:1054D0001B6C1A46019B19461046FFF761FF0346F5
:1054E000184603B05DF804FB000000000000000057
:1054F00000B583B00190019B002283F84C20019BF2
:105500001B6C1A46019B19461046FFF771FF0346B4
:10551000184603B05DF804FB000000000000000026
:1055200000B585B00D4B0393039BDB680293039B8F
:105530001846FFF71DFF0190019B012283F84C20C4
:10554000039B019ADA600298FFF7D2FF029001985C
:10555000029900DF00BF05B05DF804FB180B0020C6
:1055600000B585B001900091009B0393FFF768FFA1
:10557000039B93F84C300C2B2ED801A252F823F049
:10558000B5550008D9550008D9550008BB55000885
:10559000CF550008C5550008D9550008CF5500085B
:1055A000D9550008D9550008D9550008D955000823
:1055B000CF550008FFF754FF19E0039B1B6D002235
:1055C0001A600AE0039B1B6D1846FFF769FF039BF7
:1055D0001846FFF7BDFE00E000BF039B4FF0FF320F
:1055E0001A650398FFF76CFFFFF73AFF00BF05B09D
:1055F0005DF804FB00000000000000000000000057
:1056000000B583B001900198FFF75AFF0346184692
:1056100003B05DF804FB00BF0000000000000000C4
:1056200000B587B003468DF807300E4B0493049BFA
:10563000DB680393039B9DF8072083F84C20049BB1
:105640001846FFF795FE0590059B012283F84C2034
:10565000049B059ADA600598039900DF00BF07B044
:105660005DF804FB180B00200000000000000000A3
:1056700000B58BB0034600918DF80730154BDB6801
:105680000993009BB3F1FF3F16D003A8099B124A70
:105690000099FFF735FD9DF807301846FFF7C0FF6A
:1056A00003AB1846FFF7ECFE0346002B09D003AB13
:1056B0001846FFF745FD04E09DF807301846FFF750
:1056C000AFFF099B1B6D00BF00BF18460BB05DF814
:1056D00004FB00BF180B002061550008000000000B
:1056E00000B585B001900091144B0293029BDB68DA
:1056F0000393019B009A1A65019B9A68039B9B6820
:105700009A4294BF01230023DBB2002B03D00198FF
:10571000FFF7D6FE0DE00398FFF7EAFE0390019B2A
:10572000012283F84C20029B019ADA6001980399C8
:1057300000DF00BF05B05DF804FB00BF180B0020C0
:1057400000B583B00B4B0193019BDB680093019B79
:105750001B689A68009B9B689A428CBF01230023B8
:10576000DBB2002B01D0FFF7DBFE00BF03B05DF81A
:1057700004FB00BF180B0020000000000000000028
:1057800084B00B4B0393039BDB680293039B1B6862
:105790009B680193029B9B680093019A009B9A422D
:1057A0008CBF01230023DBB2184604B0704700BF52
:1057B000180B0020000000000000000000000000A6
:1057C00000B585B00C4B0393039BDB680293039BEE
:1057D0001846FFF7CDFD0190019B012283F84C2074
:1057E000039B019ADA600298FFF782FE019B18463C
:1057F00005B05DF804FB00BF180B0020000000009E
:1058000082B00190019B00221A6000BF02B0704775
:1058100082B00190019B00221A6000BF02B0704765
:1058200082B00190019B019A1A60019B019A5A6013
:1058300000BF02B0704700BF000000000000000081
:1058400082B00190019B019A1A60019B019A5A60F3
:10585000019B00229A6000BF02B070470000000068
:1058600082B00190019B019A1A60019B019A5A60D3
:10587000019B4FF0FF329A6000BF02B0704700BF3B
:1058800008B5FBF7BDFA0346184608BD0000000046
:1058900008B5FFF7F5FF0346184608BD00000000F5
:1058A00030B583B00190019B1846FFF7D9FF019BEB
:1058B0000022DA60FFF7ECFF034600221C46154683
:1058C000019BC3E9044500BF03B030BD00000000E8
:1058D00000B583B00190019B1846FFF7A1FF00BF00
:1058E00003B05DF804FB00BF0000000000000000F2
:1058F00082B0019000BFFDE7000000000000000042
:1059000000B58BB00190009100230993284A099BB0
:105910009B001344019A5A60019B099A1A63019BE8
:10592000009A9A63019800F04BFE019B1846FFF71E
:1059300087FF019B28331846FFF7CAFF019B3433CA
:105940001846FFF75DFF019B10331846FFF7A8FFCD
:10595000019BAC331846FFF75BFF019B03F13C0151
:105960008023144A019800F003F90246019BDA6093
:10597000019BDB68009A52689A64019BDB680122F4
:1059800083F84C200C4B0393009BDB680493009B33
:105990001B69059301230693084B07930023089383
:1059A00003AB184600F064F900BF0BB05DF804FBD0
:1059B0000C0B002090A2000880A20008F1580008FB
:1059C00082B00190019B019A1A6000BF02B070473B
:1059D00082B00190019B1B68019A9A4214BF012377
:1059E0000023DBB2184602B0704700BF0000000081
:1059F00084B00190019B1B680393039B1A68019B71
:105A00001A60039B184604B0704700BF00000000F6
:105A100082B00190019B019A1A60019B019A5A6021
:105A200000BF02B0704700BF00000000000000008F
:105A300082B00190019B1B68019A9A4214BF012316
:105A40000023DBB2184602B0704700BF0000000020
:105A500082B001900091009B019A1A60019B5A68E4
:105A6000009B5A60009B5B68009A1A60019B009A39
:105A70005A6000BF02B07047000000000000000044
:105A800084B00190019B1B680393039B1A68019BE0
:105A90001A60019B1B68019A5A60039B184604B068
:105AA000704700BF00000000000000000000000080
:105AB00082B00190019B5B68019A12681A60019B99
:105AC0001B68019A52685A60019B184602B07047E1
:105AD00082B030230193019B83F3118800BF00BF84
